S00F000044485431315F46322E733337CC
S214012000C00A00209135010043190300431903005B
S214012010FF29030043190300431903004319030072
S214012020431903004319030043190300431903002E
S2140120304319030078D103000B2C03004319030056
S214012040431903004319030043190300431903000E
S21401205043190300431903004319030043190300FE
S2140120604319030043190300897D01007517030016
S21401207043190300431903004319030043190300DE
S21401208043190300431903004319030043190300CE
S214012090431903002D3901004319030043190300B6
S2140120A043190300452601003526010043190300A4
S2140120B043190300431903004319030081FF02007B
S2140120C079B9030075B9030015F7020085B9030055
S2140120D07DB9030045FF020081B9030079DC0200E7
S2140120E0C1FF02004319030043190300431903000B
S2140120F0431903004319030043190300431903005E
S214012100431903004319030043190300431903004D
S214012110431903004319030043190300431903003D
S214012120431903004319030043190300431903002D
S2080121304319030046
S214012134F0B5114A114C124E00F00105E3695F0730
S21401214413D40DB9334213D103EA00078F4207D1E2
S2140121540B4A1A40002A0CBF00206FF00100F0BDA4
S214012164013AEBD16FF00200F9E74FF0FF30F6E7E2
S2140121746FF00100F3E700BF80969800000003505B
S214012184020001000B4B70B5D96911F480310DD1F1
S21401219401244FF48072084E084DF46020462C64E6
S2140121A41A61FFF7C5FF3464EC6070BD6FF001007F
S2140121B4FBE700BF0000035000100350002003504B
S2140121C438B541F6713301220C4C0021E569E3630D
S2140121D40B4B05F48035DA6002236061212023610C
S2140121E4FFF7A6FF10B92120FFF7A2FF0122054B36
S2140121F4DA600DB10023E36338BD00BF000003506D
S214012204001003500020035070B5134C6061E3695D
S2140122145B071ED40E4656F8043B8D18A361AE42E6
S2140122240BD10423002121202361FFF781FF58B934
S214012234BDE870402120FFF77BBF08210846FFF761
S21401224477FF10B10423236170BD56F8043BA361E4
S214012254E5E74FF0FF30F7E7000003502DE9F843B8
S214012264154641F67132164B8946DF69DA63012257
S214012274064603F58053DFF8508007F48037DA60AA
S21401228455B9284601220F4BDA601FB10022A3F587
S2140122940053DA63BDE8F88306F5005404EA08043B
S2140122A4A41BAC4228BF2C46494622463046FFF7BB
S2140122B4ABFF0028E6D12644A1442D1BE0E700BF6E
S2140122C4000003500020035000E0FFFF0000000060
S2140122E0013800D0FCE77047002370B5404C054626
S2140122F08AB0E36318B1008823600BF0EDFF3D4818
S21401230028F070FE3C4E3D4B304633603C4B7360CC
S21401231024F065FA0021304617F028F932A3D3E9F4
S2140123200023A062C4E9062324F064FAD4E9062354
S21401233019431043C4E90601CDE900014FF0FF330C
S2140123404FF0FF32A06A28F0A1FE02224FF0FF31C3
S214012350A06A28F0A0FE01200BF01AFC4FF40073CF
S21401236000222849A06A28F0E7FEB0F5007F38D1A0
S21401237000239422CDE9073309933C23CDE90332A8
S21401238005939623A06A03A9069317F0D7F935B3E8
S214012390287C0CF041F80546F0B9A06A28F0A8FFA1
S2140123A00BF0E8FF0BF0D6FB20B14FF48070002154
S2140123B008F05EFC0BF0DEFB20B14FF4006000215C
S2140123C008F056FC24F03CFB012017F025F90E4AD4
S2140123D00E49A06A24F001FA28460AB070BDFF2013
S2140123E0D7E70725F8E700BF0DD501552000000007
S2140123F0300B0020690345EC8C1D002015DA010026
S2140124009C1D00208C1B002083670300C36703000C
S2140124100348044B834202D0034B03B1184770476D
S214012420BC320020BC32002000000000064B0749E9
S214012430C91A891048BF0131491003D0044B0BB1AA
S21401244001481847704700BFBC320020BC3200204C
S2140124500000000010B5064C237843B9FFF7D8FFFB
S214012460044B13B10448AFF300800123237010BD61
S214012470A2250020000000005401040008B5054B09
S2140124801BB105490548AFF30080BDE80840FFF7DA
S214012490CDBF00BF00000000980D002054010400CD
S2140124A0A3F5803A704700BF174B002B08BF134BAC
S2140124B09D46FFF7F5FF00218B460F461348144A49
S2140124C0121A29F0CAFA0E4B002B00D098470D4B72
S2140124D0002B00D098470020002104000D000D4875
S2140124E0002802D00C48AFF300801DF07BFF2000CF
S2140124F0290000F045FD1DF021FF00BF0000080087
S2140125000000000000000000C00A0020C00A0020F1
S214012510E02E0020000000000000000038B5012574
S2140125200B4C002101201EF0D3FE04F500531D6460
S21401253044F2506004F5805405F064FC14202564D0
S21401254005F060FC2846BDE8384000211EF0C5BEF7
S21401255000C0035010B50B4C282005F053FC636CEB
S214012560DA070CD4502005F04DFC636C13F0010F14
S2140125700CBFFF200120636CDB07FCD410BD0020DC
S214012580F9E700BF00C00350F8B50024072501276E
S2140125900A4E736CD907FCD5282005F033FC726C03
S2140125A007FA05F3D2074ABF1C439C43E4B2736C97
S2140125B0DB07FCD4013DECD22046F8BD00C0035039
S2140125C02DE9F0410446FFF7A9FFFFF7C3FF134BC0
S2140125D0DFF85C801870FFF7D7FF88F80000FFF778
S2140125E0D3FF0F4E0F4F3070FFF7CEFF3870FFF757
S2140125F0CBFF0D4D2870FFF7C7FF0C4B98F8002056
S2140126001880337839782D7813440B442B4498423C
S21401261008BFC4E90012BDE8F08100BFA325002071
S214012620A6250020A5250020A4250020442500205D
S214012630A725002045F25552014BC3F820247047C8
S21401264000E003504AF6AA22014BC3F82024704743
S21401265000E003500FB4F0B5C3B048AB53F8042BF9
S2140126604FF4807102A801931DF0AEFE431EFE2BAF
S214012670054608D90C4C0D4D14F8011B71B12846BE
S2140126801FF06BFAF8E70026084F02AC384614F83C
S214012690011B01361FF061FAB542F7D143B0BDE820
S2140126A0F04004B0704700BF08C703000080055023
S2140126B070B5294E294C3046FFF782FF3368284D06
S2140126C02360736827482B60274EFFF7C3FF2168F6
S2140126D02648FFF7BFFF29682548FFF7BBFF31886B
S2140126E02448FFF7B7FF244B24481988FFF7B2FFA9
S2140126F02368234A142123481DF032FE2149022073
S21401270000F064F92B68204A14211E481DF028FEAB
S2140127101C49032000F05AF9338814211B4A194832
S2140127201DF01EFE0420174900F050F92B684A2BB5
S2140127300FD9174A126862B9164A0821C2F8A010C2
S2140127401549227809781548DBB2BDE870401EF0BD
S2140127501ABE134AF1E700BFB80D0020B40D0020E1
S214012760B00D00203DC703001032002049C703000A
S21401277056C7030064C703001232002083C7030054
S2140127809FC70300A9250020AEC70300BBC70300EF
S214012790F80D002000D0035096320020BD25002001
S2140127A000E0035007B50B4800F0B6FD034600B144
S2140127B0FEE7094A4FF47A701188012241430092DC
S2140127C00448064A00F0C6FD00B1FEE703B05DF816
S2140127D004FB00BFC00D002010320020B12601000E
S2140127E013B50D4C20780FF013FC034600B1FEE73D
S2140127F04FF4C861094A128800904A43207811466E
S2140128000FF0D0FB00B1FEE7022120780FF03CFC70
S21401281000B1FEE702B010BD963200201232002051
S214012820084B07B519884FF47A700123414300938A
S214012830054A0023054800F08DFD00B1FEE703B010
S2140128405DF804FB10320020B1260100C00D002007
S2140128503B4B70B5D3F8A060D3F8A0500368394A53
S21401286023F47F4323F00703934288B004D0364A0B
S214012870934257D008B070BD0DF10F0104A80FF0B8
S21401288057FC014600B1FEE7BDF8143008225BBADA
S214012890ADF818309DF8133018208DF81A30FF2344
S2140128A08DF81B30FE238DF81C309DF812308DF804
S2140128B01D30BDF810305BBAADF81E3006AB0FF018
S2140128C009FC00B1FEE7214C20460FF053FB0346FE
S2140128D000B1FEE74FF4C8611D4A128800904A43D2
S2140128E0207811460FF05EFB00B1FEE70721207845
S2140128F00FF07AFB174BC5F3C00540F2FF22062105
S21401290001931548C6F3800300951EF0ECFC1348AE
S214012910FFF7A0FE217810481EF024FD1048FFF7AF
S21401292099FEA7E7094C022120780FF099FB00B128
S214012930FEE7022120780FF0A7FB00289AD0FEE7D9
S21401294000C00350A0000100A0000601963200203E
S21401295012320020CFC70300BD250020DFC70300C9
S214012960FBC7030030B5154C85B01EF0ACFF002048
S21401297000F016F9204600F07BF900256FF07F4342
S2140129802046C4E901351EF024FD20460C491EF000
S21401299084FE0C4B20461A68511C19600523012140
S2140129A00093CDE90131D2B22B4607491EF088FECD
S2140129B005B0BDE8304000F01BB900BF000E002096
S2140129C01CC80300FC0D002011C803001FB50246F9
S2140129D0052301200093CDE90130002303481EF0B2
S2140129E06FFE05B05DF804EB00F002B9000E0020A2
S2140129F00123054A411100F01F00834052F82100CF
S214012A00034342F8213070472C0E0020044B1B680C
S214012A101BB1044B0360002070470120704700BFC4
S214012A203C0E00204625002070B50D4C246884B16C
S214012A300C4C85182688B5420DDC6688CD18B54243
S214012A4009DC52B14BB1A0800020E1802281638174
S214012A5070BD0120FCE70420FAE70520F8E700BF77
S214012A603C0E0020462500202DE9F74F9946494B9C
S214012A701B68002B00F08A80B9F1000718BF0127F8
S214012A804FF0010BDFF814A17F42BAF80650BAF8EE
S214012A900A300D9E2B449BB20D440093FFB2ADB29B
S214012AA01EB9304603B0BDE8F08F009AABB29A4229
S214012AB06ED9BAF80840BAF80430241AB44228BFCE
S214012AC034461844344B361B80B203EB0512B9F179
S214012AD0000F0AD0072C26D80444A04216D3284655
S214012AE0FFF786FF01350020DAE7072C1BD80444E0
S214012AF0A042F4D2C108535C00F0070C0BFA0CFCA0
S214012B0023EA0C030130535480B2F1E7C10812F8EE
S214012B1001C000F007030BFA03F343EA0C0301308C
S214012B20535480B2D9E74FEAD00C02EBD00810F02C
S214012B3007000BD1E20839464046019228F08DFF86
S214012B4014F00704019ACAD0904412E00BFA00F37D
S214012B5012F80CE0DBB2591E5B420EEA01013B4063
S214012B6008381943044402F80C10E20808F1010879
S214012B70E1D10BFA04F498F80030E4B26242013C69
S214012B8013403C40234388F80030A8E7012688E735
S214012B90042686E73C0E0020DA2500204625002084
S214012BA037B5114D2B68EBB900F044F9044610B166
S214012BB0012003B030BD00F031F928600028F7D0BD
S214012BC002884188094B20461A801A814A43598057
S214012BD059819C80DC802146CDE90042234622466D
S214012BE0FFF742FF0020E4E73C0E002046250020C8
S214012BF02DE9F843002301251A461A4FDFF86C80A9
S214012C003C68DFF86490D8F80000D61841888E42F8
S214012C1007D3FBB910220021124828F01EFF00201E
S214012C2012E0E10708D50133D118C9060ABF57F8E3
S214012C30254064080135E6E753B109EB021100F0BF
S214012C40B1F8034610B10720BDE8F883721CEBE724
S214012C500132E9E7044901EB021100F0A3F800286C
S214012C60D8D0F0E72C0E0020DA2500203C0E0020FC
S214012C7030B5054687B000B300226FF07F43C0E948
S214012C80012301A8FFF7C2FE044698B9019BCDE9CE
S214012C9002001A882B605B88013A013B284602A98C
S214012CA0049205931EF0C0FB044618B92846044951
S214012CB01EF0F3FC204607B030BD0524FAE700BF3E
S214012CC04CCB03000122014B1A61704700F0035000
S214012CD013B5044604F09AFE00230122217BCDE9B8
S214012CE000324900B0FBF1F1024A03481FF0C8FE6A
S214012CF002B010BDC52C0100540E0020F7B5082601
S214012D000E4C054604F580531E67407B05F07AF8A5
S214012D1004230B4F02220DF106013846ADF80630AA
S214012D201EF0FDFC38461EF00BFDA87B05F06AF888
S214012D30002004F50054266703B0F0BD00C0035020
S214012D408030002070B5064612481FF045FDB16878
S214012D500022114800F07EF80023042203210220FD
S214012D6001F036FC002335460C4C04221946184661
S214012D7001F02EFC0FCD0FC401222B6830462360D4
S214012D80074B1A70FFF7A4FF3046FFF7B7FF002086
S214012D9070BD00BF70D3030080300020400E0020BD
S214012DA0DA2D0020F7B5144608221D46184B0746B3
S214012DB01A67407B0E4605F025F8012215480DF1ED
S214012DC00201ADF8022025441EF0A9FC2246114C52
S214012DD09542019208D8B87B05F014F80822002025
S214012DE00D4B1A6703B0F0BD012201A920461EF063
S214012DF096FC3146102220461EF091FC0122204608
S214012E0001A91EF08CFC019A10360132E0E700BFE2
S214012E1000D003508030002000E00350034B0448EC
S214012E201B78002B08BF0020704700BFDA2D00205A
S214012E30400E002030B5064D87B001AC0FCD0FC453
S214012E402B6801A82360FFF77DFF07B030BD00BFE8
S214012E507CCE03002DE9F04F04462D4E89B001AD1E
S214012E60894690460FCE0FC596E80700D4F800B005
S214012E70284B85E807009B4545D003F580439B45D5
S214012E8043D0254DAB450CBF02254FF0FF35DFF88B
S214012E9090A022480AEB4517D7F8AC651FF09CFCBA
S214012EA060681FF099FC617B207B0023042201F0FF
S214012EB08FFB0422617A207A002301F089FB01232B
S214012EC0584601A98DF81230CDF80C90ADF8148053
S214012ED01EF0FBFD0020627A237A2E3543EA024378
S214012EE00AEB451ACAF80430627B237B06F0040617
S214012EF043EA024346F01806C7F8C035C7F8AC6582
S214012F0009B0BDE8F08F0025C1E70125BFE700BF86
S214012F1090CE0300008005500000065070D30300D9
S214012F2000C0035030B5134D89B001AC0FCD0FC4AE
S214012F3095E8070084E807004FF4A0220E4B01A98C
S214012F40C3F8C4254FF4C022C3F8BC2514220B488D
S214012F50C3F8AC2501F0AEFC0B2003F0AFFA0B2052
S214012F6003F09EFA0C2003F0A9FA0C2003F098FA5D
S214012F7009B030BD1CCF030000C0035000800550CF
S214012F8080B51FF01DFEFFF74BFC1EF0DEFBFFF7C2
S214012F90C9FFFFF7E7FC2B48FFF75CFB2A4C2B4DDC
S214012FA01FF01BFE1EF09EF9636A692B2BD1284881
S214012FB0FFF750FB2B68A3F13102012A26D8002225
S214012FC0244E303BDBB23370022B234B234F1A7057
S214012FD021D02348FFF73EFB20461EF0B8FD78704F
S214012FE020461EF0B4FD7B783870303B03EB83033C
S214012FF000EB43001B4B30381880FFF7D3FB302320
S2140130002B600023337004F08BF8C9E720461EF0CE
S2140130109EFD2860CEE71448FFF71CFB20461EF0F5
S21401302096FD787020461EF092FD7B783870303B16
S21401303003EB830300EB43000C4B30381880FFF79B
S214013040CFFBDCE7ACCE030000800550740E0020F9
S214013050B2CE0300A8250020DB2D0020DC2D0020A9
S214013060C1CE030010320020F0CE03001232002041
S2140130707FB50368244A23F47F4323F00703934272
S2140130803ED1002108221220204B0FF023F80146E2
S21401309000B1FEE7032214201D4B0FF01BF801467A
S2140130A000B1FEE7052216201A4B0FF013F800B107
S2140130B0FEE70DF1070102A80FF03AF8014600B14C
S2140130C0FEE7BDF80C3008225BBAADF810309DF86B
S2140130D00B3018208DF81230FF238DF81330FE23A5
S2140130E08DF814309DF80A308DF81530BDF808308B
S2140130F05BBAADF8163004AB0EF0ECFF00B1FEE79C
S21401310007B05DF804FB00BFA000010038CF030044
S21401311041CF030045CF030007B501A801F01AFB14
S2140131209DF80530012B27D1214A936DDB0313D47B
S214013130536B23F4FF0323F4FE4343F4BC1343F41D
S214013140A0635363136B23F4704343F44043136348
S214013150136B43F4E06313639DF8043063B94FF0D7
S21401316000531B68134B1B68134B1B68134B1B68E0
S214013170134B1B68134B1B68134AD2F8803043F07D
S2140131800303C2F8803003F05BF900F0D9F91FF0B1
S214013190A5FB1FF015FB03F0B3F900F0C7F900F02B
S2140131A00BFB00F0FDFB03B05DF804EB03F0DCBEA7
S2140131B000C00050004000200080002000C0002019
S2140131C000000120004001200080005008B5064B99
S2140131D0834207D1054B1B7823B1C8B20EF068FFB6
S2140131E000B1FEE708BD00BF780E0020E62D0020E6
S2140131F030B500250368344A23F47F4323F00703E0
S21401320085B0934204460295ADF80C5035D002F5D0
S214013210802293420CD0A2F18272934251D12B4B61
S2140132201B78002B4DD005B0BDE830401FF0E0BC48
S214013230B0F805301B2B44D1FF2304A91A4611E927
S21401324003001EF025FB012814BF41F2FC151F4B9D
S2140132504FF01B0108BF187005F0FC0220790EF034
S2140132604FFF00B1FEE71A4900902379194A096811
S214013270194800F06FF820B3FEE7B0F80530B7EE56
S214013280047A07EE903AF8EE677AB0F8073067EE00
S214013290877A013307EE103AB8EEC77A67EE877A77
S2140132A0B1EE047A67EE877AFAFE677AFCEEE77A81
S2140132B017EE903AB3F57A7F38BF4FF47A73044A23
S2140132C0136005B030BD00BFA0000602E62D002049
S2140132D090300020CD310100780E002038B505462B
S2140132E01EF04BFB00230B4A14685CB1AC4206D1BE
S2140132F0A96A6BB199621EF046FB012007E02346DE
S214013300A46AF2E7002DF3D01EF03DFB204638BD3F
S2140133101160F0E7B00E002010B50446B0B104F01D
S214013320C7FA2046FFF7DAFF10B194F82C300BB934
S214013330002010BD064C2368002BF9D01EF01DFBA3
S2140133402368013B23601EF01EFBF1E72220F0E715
S214013350B40E00202DE9F04385B005469146984607
S2140133600E469DF8307009B9002F5CD12846FFF74C
S214013370D3FF0446002836D185F82C00686304F094
S214013380A5FB864233D904F041FB2146844640F230
S214013390E7304FF47A720023E6FB0C011CF03EFE88
S2140133A04FF0FF3200231CF039FE2B46E88611460B
S2140133B02846CDE900441D4A1FF0A2FB044690B9F9
S2140133C0C5E9089885F82D702E631EF0D6FA184ABE
S2140133D0136833B31A469B6A002BFBD19562002310
S2140133E0AB621EF0D0FA204605B0BDE8F08347B1C7
S2140133F02B4631462846CDE900440C4A04F02AFB08
S214013400DCE7304603A904F007FB04460028EAD1AE
S2140134102B462846CDE90077044A03991FF04CFB5A
S214013420CCE71560DBE72124DDE700BF353401007A
S214013430B00E002091F82C3013B50C4683B98B8E54
S214013440CA8E93420ED243B9CDE9003320460B46CD
S214013450124A4FF0FF311FF013FBA38E0133A386F0
S21401346002B010BD52B191F82D3093B101230093F3
S214013470D1E908232046096BFFF76CFF012384F886
S2140134802C30074B1A6801321EBF1A6801321A60C7
S214013490E6E7084604F00CFAF0E700BF3534010011
S2140134A0B40E00202DE9F041154E336833B34FF0CA
S2140134B00008144F1EF061FA05463C6824B92846F8
S2140134C0BDE8F0411EF05FBA94F82C30A3B1336822
S2140134D084F82C8013B13368013B336094F82D30A7
S2140134E013B92046FFF7FAFE28461EF04CFAD4E937
S2140134F0083120469847DDE7A46ADFE7BDE8F0819A
S214013500B40E0020B00E0020034B1B68002B14BF26
S21401351004200120704700BFB40E0020024B18683B
S214013520B0FA80F040097047B40E002008B5034891
S2140135301FF052F9BDE808401EF045B970D30300EC
S21401354001481FF049B900BF70D3030007B5082032
S2140135501EF024FA02238DF80030054B68460193CD
S2140135601EF0B3F9082003B05DF804EB1EF021BA93
S214013570006A18100348044A0449121A92101EF0F1
S214013580E1B900BF34210100D4220100E02E002061
S21401359008B500F02FF8FFF7EDFF124B12498B42EA
S2140135A012D30020114B12498B4218D3FEF77CFF31
S2140135B0186850F82240586840F82240013298684E
S2140135C08242F5D30C33EAE70022F8E71C6844F898
S2140135D0220001325C68A242F8D30833E4E70022F5
S2140135E0F8E700BF5C0104006801040068010400FC
S2140135F068010400124B134A70B59A60D3F888200C
S214013600114D42F47002C3F888206FF0010205F5EF
S2140136100054226641F2FF7262660222C3F8D0208D
S214013620BFF34F8FBFF36F8F4FF44036032002F086
S21401363045FF0320E66002F033FF2E6170BD00BF38
S21401364000ED00E00020010000800044014B1868F6
S214013650704700BF98300020014B1860704700BFCC
S21401366098300020084B1B6F03F00703022B04D091
S214013670032B05D0012B05D0FEE7044B18687047D5
S214013680034BFBE70348704700800050983000204A
S214013690A0300020002D310108B5FFF7E3FF054BF0
S2140136A01B6FC3F301330133B0FBF3F0024B186019
S2140136B008BD00BF008000509430002000487047CD
S2140136C000B4C404014B1868704700BFA030002046
S2140136D0054B1860054B1B6F03F00703032B01D145
S2140136E0FFF7DABF704700BFA0300020008000500F
S2140136F000487047002D3101174B9868C0F304400D
S2140137000C280AD8DFE800F00B0909090909072186
S21401371019091B1D1F0011487047002070479B6840
S21401372003F04073B3F1807F11D0B3F1007F10D066
S2140137300B4A002B08BF104670470A4870470A48D4
S21401374070470A4870470A4870470A4870470A484F
S21401375070470A48704700BF0040015A405DC600E6
S21401376000093D00C0EA210180BA8C010048E80149
S214013770005A62020024F40080841E0040420F00BA
S214013780014B1868704700BF9C30002000239B6ADD
S214013790B3F5903F03D21968064A914203D000233D
S2140137A0037083607047012202709A689B694260C9
S2140137B0F7E700BF07B0CD5E00239B6A10B5B3F5EF
S2140137C0903F11D219680A4A91420DD1094C2278CC
S2140137D012F0FD0F01D0002010BDDB6998470028CC
S2140137E0FAD101232370F6E74FF48170F4E700BFA6
S2140137F007B0CD5EE72D00204FF00053014A1A6056
S21401380002F03CBE02020FF0034B5868C0F30800FA
S214013810003818BF0120704700ED00E013B5002402
S214013820294801941EF0D8FF0123042203212046D3
S21401383000F0CEFE20461EF030F90122234B052073
S214013840C3F8442401A91EF0BDFF002839D1204B3E
S214013850D3F8F02042F00102C3F8F020D3F8FC20A0
S21401386042F08072C3F8FC201A4AA3F55D431A6041
S214013870019B194A03F5D52303F2FC43B3FBF2F38C
S214013880164A013B13610223C2F8F0304FF48073ED
S214013890C2F804334FF06043114AC3F8B02F114AFF
S2140138A0C3F8802ED3F8002E42F48072C3F8002E9F
S2140138B0FF2283F82020D3F8002E22F48072C3F86A
S2140138C0002E02B010BD00BF70D3030000D003501D
S2140138D000ED00E0FF030040F8590D00000004E091
S2140138E055CEACC5090001004FF06043D3F8802ED9
S2140138F030B5D20715D501240B4D8440D5F8FC20F0
S21401390042F08072C5F8FC20D3F8002E2243C3F89B
S214013910002E53F82020002AF0D003F820100020B3
S21401392030BD1120FCE700BF00ED00E0184B2DE98B
S214013930F0411F6D5B6D1F4000D5FEE70126002597
S214013940144CDFF85880374218D02368C8F8506006
S214013950A3B1A168284601316268A1609847637BDC
S214013960012B0BD150B90C4B03EB45131A7B60F3BB
S21401397041021A731A7F60F341021A770135082D46
S2140139804FEA460604F11004DDD1BDE8F08100BF20
S21401399000000450B80F0020B80E0020002004508C
S2140139A0024B1968024B186815F0ECB9A4300020D8
S2140139B0C430002070B59400224605460E4628F015
S2140139C09FFE431C0AD058B922463146284628F0A5
S2140139D01AF80028034808BF002070BD0248FCE71B
S2140139E00248FAE710E000F021E000F024E000F0E1
S2140139F010B5044628F080FE431C10D088B900F0AC
S214013A00D1FE234620F003002044984201D1002035
S214013A1010BD53F8042B0132F7D00348F8E70348EA
S214013A20F6E70348F4E700BF0EE000F021E000F0FF
S214013A3024E000F008B51DF099FF014B186008BDA1
S214013A4028170020014B18681DF094BF2817002086
S214013A5041F67133124A30B5D469124DD363936877
S214013A60A84204F4803423F4401306D893600E4A27
S214013A70D2F8183223F002030AE043F4801393606D
S214013A800A4B9842F3D9084AD2F8183243F0020397
S214013A90C2F8183214B10022014BDA6330BD00BF00
S214013AA000000350005A620200C0075080F0FA027C
S214013AB02E4B98424AD022D82D4B984240D014D84B
S214013AC02C4B984239D00AD82B4B984232D02B4BEC
S214013AD098422FD02A4B98422CD000207047294B71
S214013AE09842FAD1284B186F7047284B98422AD033
S214013AF0274B9842F1D1244BD3F880007047254BD1
S214013B0098422BD009D8244B984223D0234B984275
S214013B10E3D11D4BD3F88C007047214B984221D03E
S214013B2003F5740303F510539842D6D1164BD3F818
S214013B3098007047144B986D7047134B586E70473A
S214013B40114B586F7047104B986F70470E4BD3F858
S214013B50840070470C4BD3F8880070470A4BD3F8A3
S214013B6090007047084BD3F8940070470048E8016E
S214013B700024F400C0CF6A0080841E0000093D00C6
S214013B8040420F00405DC6000080E00FC0EA210100
S214013B9080BA8C01007E560380D54302006CDC029D
S214013BA00090D00338B5134B0546D3F820010C46D8
S214013BB000F0070004281AD8DFE800F003090D1109
S214013BC01500012305B1286004B1236038BDFFF755
S214013BD03DFD0423F6E7FFF775FD0323F2E7FFF744
S214013BE08BFD0523EEE7FFF783FD0223EAE70023BB
S214013BF01846E7E70080005037B50C460021114B08
S214013C000191D3F88031054603F00303022B0ED051
S214013C10032B11D0012B03D101A8FFF7C3FF0D2100
S214013C200DB1019B2B6004B1216003B030BDFFF7DD
S214013C3063FD05210190F3E7FFF75AFD022101908C
S214013C40EEE700BF0080005038B5104B0546D3F8AC
S214013C5040310C4603F00303022B0BD0032B0DD08F
S214013C60012B0FD11DF07CFE082305B1286004B19D
S214013C70236038BDFFF784FD0723F6E71DF073FECA
S214013C800923F2E701230020EFE700BF0080005080
S214013C9038B5104B0546D3F860310C4603F00303E4
S214013CA0022B0BD0032B0DD0012B0FD11DF058FE8C
S214013CB0082305B1286004B1236038BDFFF760FD15
S214013CC00723F6E71DF04FFE0923F2E70123002044
S214013CD0EFE700BF0080005038B5144B0546D3F817
S214013CE000020C4600F0070004281BD8DFE800F0AD
S214013CF003090D111500012305B1286004B12360E5
S214013D0038BD1DF02DFE0823F6E7FFF739FD072322
S214013D10F2E71DF028FE0923EEE7FFF7BDFC0C23B2
S214013D20800AE9E700231846E6E700BF0080005056
S214013D3038B5144B0546D3F808020C4600F00700C8
S214013D4004281BD8DFE800F003090D111500012334
S214013D5005B1286004B1236038BD1DF001FE0823BB
S214013D60F6E7FFF70DFD0723F2E71DF0FCFD09233B
S214013D70EEE7FFF791FC0C23800AE9E700231846DB
S214013D80E6E700BF0080005038B5104B0546D3F873
S214013D9040320C4603F00303022B0BD0032B0DD04D
S214013DA0012B0FD11DF0DCFD082305B1286004B1FD
S214013DB0236038BDFFF7E4FC0723F6E71DF0D3FDCB
S214013DC00923F2E700231846EFE700BF0080005002
S214013DD038B5104B0546D3F800310C4603F0030303
S214013DE0022B0BD0032B0DD0012B0FD1FFF76AFC52
S214013DF0032305B1286004B1236038BDFFF7C0FC7A
S214013E000723F6E71DF0AAFD0623F2E701230020AB
S214013E10EFE700BF0080005038B50C4605461DF0A0
S214013E20A5FD054B9A6A54402C4054409C62BDE85F
S214013E3038401DF09FBD00BF00C00050032814D0BD
S214013E4005D8012805D0022809D0002005E00F2852
S214013E50FBD1084B186FC0F3013001307047054B9A
S214013E60D3F89000C0F30460F7E7024B186FC0F375
S214013E708020F2E7008000501FB50023019325281B
S214013E8017D8DFE800F0131A1D272C363B51565B76
S214013E9060656A78161A401616561A272C27361A9F
S214013EA05127783B3B3B3B2727275B60FFF7DAFB35
S214013EB00190019805B05DF804FBFFF7EDFBF7E70D
S214013EC0FFF7D0FB02460220FFF7B8FFB2FBF0F285
S214013ED00192EEE7FFF7E0FB02460320F4E7FFF767
S214013EE0DBFB02460320FFF7A9FFB2FBF0F2520804
S214013EF0EEE7002101A8FFF77FFEDAE7002101A81F
S214013F00FFF750FED5E702934FF0E0231B695B07EE
S214013F1005D5FFF7C1FB0290029B0193C9E703A9F0
S214013F2002A8FFF791FEF7E7002101A8FFF78CFE34
S214013F30BFE7002101A8FFF7ABFEBAE7002101A801
S214013F40FFF7CAFEB5E7002101A8FFF7F1FEB0E7CB
S214013F50002101A8FFF73CFFABE7094BD3F88030FF
S214013F6003F00303022BA8D0032B01D000209FE708
S214013F70FFF7C2FB9CE7002101A8FFF705FF98E7C2
S214013F800080005008B50120FFF776FFBDE8084025
S214013F900349884294BF01210221032000F002B8A0
S214013FA080F0FA02032810B50C4627D004D8012861
S214013FB004D0022817D010BD0F28FCD11DF03AFD01
S214013FC01DF040FD124A013C136F23F4405343EAAF
S214013FD004331367FFF760FB0021FFF739FDBDE8E7
S214013FE01040FFF7CFBF0A4A4C1ED2F8903023F09C
S214013FF0F85343EA0463C2F89030DCE7044A4C1EE7
S214014000136F23F4806343EA84231367D3E700BF67
S214014010008000501FB500230193252821D8DFE832
S21401402000F013202020202A2F454A4F54595E7154
S21401403020203420204A202020202A204520712FAD
S2140140402F2F2F2020204F54314B1B6F03F00703D7
S214014050013B032B05D8DFE803F00C02080A042312
S2140140600193019805B05DF804FB0323F8E70623E6
S214014070F6E70223F4E7002001A9FFF7BDFDF0E70C
S214014080002001A9FFF78EFDEBE702934FF0E02336
S2140140901B695B0705D5FFF7FFFA0B230393039B09
S2140140A0DEE703A902A8FFF7CFFDF8E7002001A984
S2140140B0FFF7CAFDD5E7002001A9FFF7E9FDD0E724
S2140140C0002001A9FFF708FECBE7002001A9FFF7B2
S2140140D02FFEC6E7002001A9FFF77AFEC1E70C4BC9
S2140140E0D3F8803003F00303022B03D0032B05D053
S2140140F00023B5E7FFF7D0FA0B23B1E7FFF7FCFA89
S2140141000523ADE7002001A9FFF73EFEA9E700BFA2
S21401411000800050024A536A23F00103536270473D
S21401412000C0075008B5FFF775FF07280ABF024B06
S2140141304FF6FF70188808BD8432002008B5FFF7D7
S21401414069FF03280ABF024B4FF6FF70188808BDA7
S2140141508232002038B50546FFF7AAFC204B0446FC
S2140141605A68012A04D11F494A609A699207FCD10C
S2140141700020FFF74FFF042803D11DF05BFC1DF064
S21401418061FC194A24F0407395421FD0174A9542A4
S2140141901FD0174AD16811F0060FFBD190689360C3
S2140141A091684B4013F4F81F16D12846FFF754FACE
S2140141B00020FFF72FFF042810D1FFF76DFA00212A
S2140141C0FFF746FCBDE83840FFF7DCBE43F000735E
S2140141D0DFE743F08073DCE79060E9E738BD00BFB6
S2140141E000C0015000E0015040420F0080841E00D4
S2140141F000000150F8B504460020FFF70BFF032826
S21401420000F0818045F60E0302213F4AC2F8803055
S2140142103E4B9962012103F580539962936DD90350
S214014220FCD4D4E900131B0543EA0163E17B94F84F
S21401423020500B43217BE77E43EA0143617B6D01FE
S21401424043EA0133A17B43EA811313619169D4E9FF
S21401425004031B0643EA806301F000410B43A17E81
S21401426094F823000B43217E43EA0143617E43EA2F
S21401427001239361136AE66923F00D0394F8221073
S21401428043EA870366BB1362966A94F8213045EACF
S214014290031326F033052B4343F0010393621C4DB1
S2140142A0194A936D35EA0303FBD10225174B9D622C
S2140142B0936D5B00FCD41369A56823F4700343EA8D
S2140142C0055313614FF00042104B9A6119B902224F
S2140142D003F580539A6278B901220E4B9A620BE07D
S2140142E0334343F008031362936A23F03303034313
S2140142F02B4343EA4103936294F824301BB1024BEB
S214014300054AC3F88020F8BD00C0005000D0005018
S2140143100300014000E00050F1A7FFFF70B5184C04
S214014320FF28A66A2AD8A36D13F4803F18BF01227E
S214014330144B18BF9A6202229A62A56D15F0804549
S214014340FBD1114AA36992F9002023F47F030244AA
S21401435023F47F4382F3080243EA002343EA02433D
S214014360A36131460220FFF757FDA36DDB0303D59A
S21401437031460120FFF750FD284670BD2125FBE799
S21401438000C0005000D00050E82D0020014B93F9EA
S21401439000007047E82D002001231248124A816A66
S2140143A09362836D03F00303032BFAD10223936216
S2140143B00C4A936D5800FCD40C48936D30EA030305
S2140143C0FBD10122084B1A65A3F580539A6D92071B
S2140143D0FCD49A6D9007FCD59A6D9207FCD5032004
S2140143E0FFF71ABD00C0005000D0005003000100C6
S2140143F0F0B5D0E901434FF4D1560227164A417869
S21401440005785662154E4F2977604FF0010728BF91
S2140144104F2106F5805677601669F603FCD441EA0B
S214014420052151611B01417B43EA04230B43017BB8
S21401443043EA41039360C37B817B1B0143EA41133B
S214014440417C0B43017C43EA41035360837C13B1F7
S2140144506FF4D1535362F0BD0000025000100250B9
S214014460014B1880704700BF84320020014B188032
S214014470704700BF82320020284B984242D01AD89B
S214014480A3F5B703A3F55863984237D00CD8244B4D
S214014490984225D0234B98422AD0234B984217D0D6
S2140144A00023224A93607047214B9842F8D1214B52
S2140144B0D3F8BC301FE0204B984227D01F4B9842C0
S2140144C028D01F4B9842EBD11A4BD3F8C83012E0D4
S2140144D0184BD3F8A03023F0407343F00073E0E7A5
S2140144E0144BD3F8A03023F0407343F08073D8E721
S2140144F0104BD3F8A03023F04073D2E70D4BD3F81E
S214014500B830F8E70B4BD3F8C030F4E7094BD3F8D3
S214014510CC30F0E7074BD3F8D030ECE7C0EA210106
S21401452080841E0000093D0040420F000040015AF1
S2140145300024F4000080E00F0048E801005A6202FF
S21401454080BA8C010C4A10B51369044643F0040383
S214014550136102F091FF1DF08DFA084B084AC3F86B
S214014560202430BF1DF087FA02F0A8FF1CB9BDE871
S2140145701040FFF791B810BD00ED00E000E00350D9
S2140145800000FFFF0A4A10B51369044643F004030E
S2140145901361084B084AC3F8202402F06DFF30BFB0
S2140145A002F08CFF1CB9BDE81040FFF775B810BDCE
S2140145B000ED00E000E003500000FFFF034A017930
S2140145C0D36E23F030030B43D36670470040005090
S2140145D0F8B504460D461F4616464AB101238B40E0
S2140145E03021184A01FB0022F7B141F21001535065
S2140145F004EB4403072D4FF00F014FEA031316D8BF
S214014600A80006FA00F281400F4818441DF036FA59
S2140146104EB9012330210B4AAB4001FB042277B18E
S21401462041F210015350F8BD42F21001DFE7A5F147
S2140146300800800006FA00F281400448E5E742F2ED
S2140146401001EFE700C0035004C003500CC0035034
S21401465041F67132034BDA63012203F50053DA6047
S214014660704700BF0000035041F671320121044B30
S214014670DA6303F50052D1600022DA63704700BFA7
S21401468000000350CB784A7810B55B010C7843EAFA
S21401469082030A79234343EA02130C22424302F1BE
S2140146A0B0421363012C02BF8A78024B43F82020E4
S2140146B010BD00BFD080035008B54FF0B0435A6814
S2140146C06AB958B15B680BB11DF0E8F901210D4BD1
S2140146D059601DF0E3F94FF0B043D96008BD5B683F
S2140146E00BB11DF0DBF90028F0D11DF0D7F94FF022
S2140146F0B0430222DA601DF0D1F90122024B5A6062
S214014700ECE700BF00100058002000584FF0B04101
S2140147104B6810B50BB11DF0C1F901220B4BC478E3
S2140147205A608378934043EA8403447823430479A8
S21401473043EA0413447943EAC4038B60044B5A608A
S2140147400378C3F10203CB6010BD00BF0020005800
S21401475000100058054B5B69C3F38512827003F0A5
S2140147603F021B0B42700370704700BF00C007502A
S21401477040F6B732064B5B689BB293429FBF4FF43D
S2140147807A72B3FBF2F3034AD05C88BF002070470D
S2140147900080E00FE9D10300014B986CD96C70479B
S2140147A00080E00F0120034B9B680A3303F01F03D0
S2140147B0984070470080E00F0D4B984208D1A3F552
S2140147C00033C3F88411C36D43F08003C36570479B
S2140147D0084B984204D1A3F51033C3F89411F2E7BD
S2140147E0054B984204BFA3F52033C3F8A411EAE7AA
S2140147F00080055000C005500000065070B5054603
S21401480016461C4619B90320FFF736FB0146402C15
S2140148101BD003D8DCB1202C1BD070BD602CFCD182
S214014820042303FB06F2530803EB4113B3FBF2F335
S214014830094A203B02EAC303AA6822F06002AA6082
S214014840AA681443AC60EB61E7E70623E9E71023A7
S214014850E7E70823E5E700BFF8FF7F00012200F540
S21401486080535A6040F6AA6341F205024361002371
S2140148700D498360C365C26000F500520361C361E0
S214014880C364916409498365884203D103650023A3
S214014890436506E006498842F8D001F58041884222
S2140148A0F4D0012353607047FFFF010000800550DC
S2140148B000C0055070B50D46FFF7D0FF012300F587
S2140148C080567360AB7C04461BB1836843F080431B
S2140148D08360EB7C1BB12046297DFFF76DFF2A8A9A
S2140148E06B7B20461343EA891343E3602B7BD5E9B0
S2140148F00112FFF783FF6B7D1BB1A36843F480337E
S214014900A360AB7D1BB1A36843F40043A360EB7DBA
S2140149102A7E1B07120502F4E00203F0E04313436C
S214014920A365697E1F4A8B1E012B1F4B1DD894421F
S21401493017D002F58042944215D002F58042944287
S2140149400CBF02224FF0FF3203EB4213022041F26A
S214014950AC520329985020D10423F3652B78636168
S21401496070BD0022F0E70122EEE7944211D00F4A13
S214014970944210D002F5804294420CBF02224FF0BE
S214014980FF3203EB4213022042F2AC520129985047
S214014990E1E70022F5E70122F3E7042204F50053DC
S2140149A0DA65DBE70080055000C0035000C0055003
S2140149B038B50446054D26F0A3FB0FCC0FC594E889
S2140149C00F0085E80F00002038BD00BF2C1700201F
S2140149D047F6FF739A42F0B572D0022972D83A4B65
S2140149E05B5C022B6ED8394DDF0005EBC304A17862
S2140149F015F83330012938BF0121012B13D10025C9
S214014A00E078401AA84202D80844C0B2F0BD431B61
S214014A106668A0EB530336F913609642D4BF1D4671
S214014A2003F1FF30EEE760680028EFD0B0F90040F0
S214014A30944204DBB0F902409442B8BF144683881E
S214014A403D44FF2B19BFC8224FF0280CB0F90620B1
S214014A50B0F908C0A2EB04030CBF0126002693FBA5
S214014A60FCF333446E781BB29E4201DD002B01DA63
S214014A70731E1BB24FF47A7C01339BB2071D5D1E79
S214014A802DB24FEAC50E00EBC505EA88AD689E4219
S214014A9014FB025222EAE27202F15C02B2FBFCF261
S214014AA004DD37F8335001339542E8D200EB0E03AC
S214014AB09888904228BF1046884238BF0846A4E727
S214014AC0FF20A3E70020A1E7ECD103002C1700206C
S214014AD00229F0B560D8314B595C02295CD8304BBD
S214014AE013F83100012816D103EBC1039C78D8785E
S214014AF0012C214638BF0121904294BFC1EB000131
S214014B00C1EB0201001BCAB28242C8BF00225B6829
S214014B1033F91200F0BD002A3CD003EBC1035968FB
S214014B20002939D09878904202D3B1F90200F1E712
S214014B30DC78B1F900009442ECD95C788B88013CB2
S214014B40A3F1FF06734201F10405E4B2734101F1DA
S214014B500C07DEB2B44216D805EBC3034FF47A75E0
S214014B606A43B3F902405B68D21A04EBD47302EBD2
S214014B70630292FBF4F29042CCDBB1F90200904260
S214014B80C8DC10B2C6E737F833C05E1C9445E3D3E1
S214014B903346DEE70348BDE70348BBE7ECD1030035
S214014BA02C1700200CFEFFFF0080FFFF08B504480D
S214014BB0FFF7FEFEBDE80840012026F0A5BA00BFBB
S214014BC0F0D1030000487047863200207FB50222EC
S214014BD0084B0949CDE901234FF00073CDE90313D2
S214014BE0052301A94FF0FF30059326F0BDFA07B063
S214014BF05DF804FB006A1800000204002DE9F0418C
S214014C008CB08846DDE912761D460446002847D05A
S214014C10002945D0002F43D0002E41D013F00F03BA
S214014C203ED120482049A360002A08BF0146E3611F
S214014C30C4E90013404609A91DF0A7F868BB204641
S214014C4009991DF0E6F9294620461DF0E2F9694664
S214014C5040461DF048F900BB694620461DF0C5F9DF
S214014C60404603A91DF04AF9B8B9204603A91DF02C
S214014C70BCF906970127204645F0005506A9079777
S214014C8008951DF0B2F9204609A909960A970B95D1
S214014C901DF0B5F920461CF0A6FF0CB0BDE8F0816A
S214014CA02120FAE700010004000101042DE9F0418A
S214014CB08CB0884616461D460446129F00284BD0E7
S214014CC0002949D0002A47D0002F45D00B68103B59
S214014CD0102B41D8214A22FA03F3D9073CD50023E9
S214014CE01F4A8360C0E90023C36109A940461DF03D
S214014CF04CF870BB204609991DF08BF929462046D1
S214014D001DF087F9694640461DF0EDF808BB694677
S214014D1020461DF06AF9404603A91DF0EFF8C0B918
S214014D20204603A91DF061F906960126204606A92C
S214014D3045F00055079608951DF057F9094B204692
S214014D4009A909970A960B931DF059F920461CF0FC
S214014D504AFF0CB0BDE8F0812120FAE7010101000D
S214014D600000040410000020F0B50C4617461E464D
S214014D70054695B0002874D0002972D0002A70D05C
S214014D80002B6ED0036B0F2B5BD80023364A3846B8
S214014D90C4E90023A360E36111A91CF0F6FF002813
S214014DA05BD1204611991DF034F9296B20460F2955
S214014DB084BF01F00F0110311DF02BF9384602A90E
S214014DC01DF091F8002848D1204602A91DF00DF9E2
S214014DD0384605A91DF092F800283ED1204605A9BF
S214014DE01DF003F90122214B089509920A932B6BBA
S214014DF005F1100003F00F0141F000510B900F2B4D
S214014E000C920D910E900F9243F00052109226D9FB
S214014E100A9B08A923F0005320460A931DF0E5F8E3
S214014E200BA920461DF0E1F80123119612930F4BB2
S214014E30204611A913931DF0E2F820461CF0D3FE7C
S214014E400BE000F120030190009301221023394664
S214014E502046FFF7D3FE002897D015B0F0BD0EA967
S214014E60DFE72120F9E700BF00000404100000205E
S214014E702DE9F04F9BB00C4690461F460546DDF8DF
S214014E809090002800F0B280002900F0AF80002A40
S214014E9000F0AC80002B00F0A980026B02EB090346
S214014EA01B09B3EB121F02F00F0600F097800023D8
S214014EB04F4A8B60C1E90023CB61404617A91CF01D
S214014EC064FF0346002840F0858006EB090B204668
S214014ED017992BF00F0A1DF09CF8514620461DF03D
S214014EE098F8404602A91CF0FEFF0346002871D13F
S214014EF0204602A91DF079F8404605A91CF0FEFFE0
S214014F000346002866D14FF00108019005A9204606
S214014F101DF06BF8374A204608A90895CDF824807D
S214014F200A921DF062F846F00051AAEB060605F15A
S214014F30100346F000560B93CDF830800D910E9776
S214014F40CDF83C8010960D99204621F000510D9128
S214014F500BA900931DF049F820460EA91DF045F84F
S214014F60019B244A1193AAF1100343F00053CDF894
S214014F704880139305F120031493CDF854801692BC
S214014F80139B204643F080431393139B11A923F0F0
S214014F90005313931DF033F8204614A91DF02FF883
S214014FA0144A17A920461795CDF8608019921DF06E
S214014FB026F820461CF017FEAAEB0B014944019087
S214014FC0ABEB0A020098394426F062FD019B2A6B7E
S214014FD04A442A6318461BB0BDE8F08F10304A4693
S214014FE03946304426F054FD0023F0E72123F1E74B
S214014FF003020004100000202DE9FF474FF00008CF
S2140150000E4617460446CDF80080002859D022B92E
S2140150100025284604B0BDE8F087002951D032F0BB
S214015020030902F0030A1FD04FF0E063C0E900381D
S21401503001230191C0F808800293C0F81C8049F052
S214015040005301A903931CF0DAFF494620461CF0E1
S214015050E0FF20461CF0C7FD054628B14A464146FA
S214015060304626F0FAFCD4E7BAF1000FD0D04FF064
S21401507000084FF0E063C4E900380123CDF804D0FE
S2140150800293114B204601A9C4F80880C4F81C807D
S21401509003931CF0B4FF042120461CF0BAFF2046FF
S2140150A01CF0A1FD054608B13A46D8E7009A4E44E1
S2140150B0EB00013522FA03F3AA4506F8013BF7D1C6
S2140150C0A6E72125A5E700BF04000020F0B50F469E
S2140150D016461D46044693B010B9212013B0F0BD04
S2140150E00029FAD0002AF8D0002BF6D0002331464A
S2140150F01A4638461CF0EEFD0028EFD1304602A9CC
S2140151001CF093FD0028E9D138683449029A884298
S2140151106B695ED19342E0D32B68002BDDD14FF053
S21401512060623846C4E90023A360E36101A91CF06C
S2140151302CFE0028D2D10199204621F4F06101917C
S2140151401CF067FF694628461CF01FFE0028C5D1E3
S214015150204600991CF05DFF384609A91CF0C3FEE5
S2140151600028BBD1204609A91CF03FFF38460CA9F0
S2140151701CF0C4FE0028B1D120460CA91CF035FF56
S214015180EB684BB1284606A91CF0ADFE0028A5D158
S214015190204606A91CF029FF304603A91CF0AEFEE6
S2140151A000289BD1204603A91CF01FFF28460FA903
S2140151B01CF0A4FE002891D120460FA91CF01FFF69
S2140151C0032520461CF00FFD012887D1013DF8D1AB
S2140151D084E7B3EB420F9FD27FE700BF200000B009
S2140151E070B50E46154604468AB000285CD00029E4
S2140151F05AD0002A58D0012329461A4630461CF0B8
S21401520069FD00284ED1B36813F4C04F4CD0AB688B
S21401521003F4C043B3F5005F46D1254BA060C4E953
S2140152200030E06107A930461CF0AFFD002839D1F7
S214015230204607991CF0EDFE012302934FF0005320
S214015240204601A903931CF0D0FE304604A91CF0A9
S21401525055FE38BB204604A91CF0C7FEEB681BBBF5
S214015260AB6803F4C043B3F5005F1DD16946284619
S2140152701CF0FEFCB0B9009B6A699A4216D32A69F3
S21401528043F0005307920122204607A908920325FE
S21401529009931CF0B4FE20461CF0A5FC012801D1A0
S2140152A0013DF8D10AB070BD2120FBE71D20F9E7CA
S2140152B0000001021FB5044698B191B100230A4AC5
S2140152C08360C0E90023C361012301910293074B68
S2140152D001A903931CF093FE20461CF084FC04B045
S2140152E010BD2120FBE700BF00000843040000209A
S2140152F006289ABF014B185C00207047DCD20300D9
S21401530030B5154B87B00293144B0390049346F6C1
S21401531011030D46059300F077F91428044616D1BB
S21401532068461CF02CFF4FF0A843032202A95A63DB
S21401533019601D619A63DA6B9207FCD1142C02D1B5
S21401534068461CF02AFF00F08FF9044601E00028A9
S214015350E9D0204607B030BD4C17002004000020DD
S2140153602DE9F04FB1B005468C469E46E8466F4E95
S214015370DDF8EC90409C06F1100A474630687168EB
S214015380083603C75645B846F7D13E9B03EB0208DD
S214015390C8F1000A0AF00F0AB9F1000F00F09D806B
S2140153A0C9F1000707F00F070121DDF8FCB044F052
S2140153B00050C4F11006CDF810B0059106903002E9
S2140153C000F4F85040F021000790B9F1000F40F0CA
S2140153D08680CDF820D047F00050002D00F0848064
S2140153E0099121210A9041EA07210B9142F00050D0
S2140153F0CDF830C03D9B08A94FEA0A2C0D910E90BE
S2140154004CF041000F901093002A75D13E9B1191EC
S21401541043F0005312933C9B1390149310AB1593D7
S214015420434B444A169340F611031793424B00210F
S214015430002D08BF1346189314AB19933F4B102247
S2140154401A9311231B931CAB184626F006FB012268
S2140154501D92002246F0804603461E96239205B909
S214015460EB46102CCDF880B024AE4BD1012322465A
S214015470002130462193229426F0EFFA20AB00213A
S21401548025938F4218BF334647F0804226923A9AB8
S2140154902CA828922993B2FA82F35B0949EA83730E
S2140154A010222B912A9326F0D8FAB9F1000F00D0DA
S2140154B028AED04448F080432CA918A82D962E93E8
S2140154C0FFF71EFF30B92DB90346A34225D10028A8
S2140154D018BF2C2031B0BDE8F08F102764E7CDF857
S2140154E020E049F0005078E7002C3FF479AF04A99A
S2140154F0099101210A9076E73E9B0CAA1192412060
S214015500129388E71022002130462193229426F038
S214015510A4FA002CB2D10123B1E703F1C0026A4418
S21401552012F8C02C01331043CFE700BFE3D20300CB
S21401553010000020F8D20300FCD203000400002073
S214015540F0B5C0299FB0DDE9244557D0B1F5807F7D
S21401555004D0802948D029201FB0F0BD01265CB1B7
S21401556040F23447029410240396049421240197B0
S2140155700594069502AC0AE040F214470294102402
S2140155800396049421240594012401970695079413
S21401559001251024089409950A9221220B950C9452
S2140155A00D92174A0AAD0E92164A0F95109242F6C0
S2140155B011021192129313951494159201AA169240
S2140155C0D3B112AB1793042318931123199316AB77
S2140155D01A901B9340F61103C9081C911AA806A934
S2140155E01D93FFF78DFEB7E7012614B94FF48267C6
S2140155F0C4E74FF48667B5E70EABE3E70F20ABE7EA
S214015600F4D2030010000010144A38B5D2F88032E4
S21401561043F00103C2F88032114B5B68C3F3080301
S21401562043B14FF0A842D36B13F0430FFBD11424C0
S214015630204638BD4FF0A843DC6B14F04304FBD181
S214015640084D2B681BB90421284602F019FE2B6869
S214015650013343F000432B60EAE700BF00800050AF
S21401566000ED00E04C170020014B00205B687047FE
S21401567000ED00E0012300F01F02A0F50620094915
S214015680A0F550604009934051F820201A4341F894
S2140156902020054951F8202022EA030241F8202063
S2140156A0704700BF64170020501700200121A0F5A5
S2140156B006230E4AA3F550635B0900F01F008140E4
S2140156C052F82300014342F823100949D1E900307A
S2140156D0034488680344C868096903445B1802BF29
S2140156E0C2E90033C2E90233136170475017002044
S2140156F0641700202DE9F04FA9B003921D46044619
S2140157000822339ECDE90401414021FA02F34B40C1
S214015710980702F1080218BF9B00202A1C44F4D106
S2140157208123B4FBF3F303EBC313E41A734B04F5C1
S21401573006241B7804F55064002B3ED1FEF730F9A1
S214015740074620B16FF0910029B0BDE8F08F014601
S214015750402208A826F081F94022394618A826F0EA
S2140157607CF9DFF8B481DFF8B491C3460BF10F0A78
S214015770CDF800A0102208A95B46D9F8000025F054
S21401578070FA0022014608F1100808AF914246D18E
S214015790CDF800A05B461022D9F8000018A925F024
S2140157A069FA4FF0000A834618AFD34541D1544BEE
S2140157B09845DAD10122514B1A704FF0810A4FF009
S2140157C00008DFF85CB1A4F50627A7F550635B096E
S2140157D05BF8232004F01F01CA40D2073DD4494A92
S2140157E052F82330CB40DB072AD5B8F1000F08BFAB
S2140157F0A0468123A7F6FF47B7FBF3F303EBC313DA
S214015800FF1A07F50624BAF1010A04F55064DAD145
S214015810039BBBB1B8F1000F14D0444619E057F80A
S214015820040BCDE90612FFF725FF079A0699013208
S214015830ACE757F8040BFFF739FF0AF1010AB4E7A2
S214015840039B13B96FF08B007EE7B8F1000F18BF0A
S2140158504446349B00201C6076E7329B13B100233C
S214015860329A13600EB1002333601023DFF8AC9038
S21401587000932A4600232146D9F8000013F0F4FBD2
S21401588060BB32992A68204BC9B99A4206D0214694
S214015890D9F8000013F080FC0028D3D1D5E9022303
S2140158A0DDE90410834208BF8A42A2D1039B002B84
S2140158B0CFD06B68012BCCD16FF0840044E7102069
S2140158C032999A420860E2D1002EE7D0334621464B
S2140158D0D9F8000018AA13F01BFC48B10B4B9842EC
S2140158E0D5D00B4B9842D2D00A4B9842D6D029E756
S2140158F0329A336812689B1A3360CFE7E92D00208D
S2140159000071080050170020105D175EFFDF00F0E1
S21401591011E000F0FEDF00F0006D0800C43000204A
S214015920641700202DE9F04F87B0824689469846D5
S2140159301646DDF840B02AB1002B4FD040F26C730A
S2140159409A424ED8BBF1010F4ED8002406F110073B
S2140159503946012005941DF02EF80546002846D04C
S21401596021463A4626F079F805ABCDE90143009485
S2140159702B46012250464946FFF7BCFE044680B13D
S21401598010F18C0F08BF6FF08D043A4600212846AF
S21401599026F063F828461CF0F0FF204607B0BDE865
S2140159A0F08F144BC5E902A92B60C5F804B02EB1DF
S2140159B03246414605F1100026F06AF8059E0E486B
S2140159C03B462A463146006813F0B6FA18B9304607
S2140159D0FFF750FED9E76FF09104D6E76FF0860423
S2140159E0DBE76FF09104D8E76FF08504D5E76FF039
S2140159F08C04D2E7105D175EC43000202DE9F04319
S214015A008DB08146DDE914780E4615461C469BB1DD
S214015A10B8F1000F05D16FF0860630460DB0BDE82F
S214015A20F083002FF7D0B7F1005FF4D3C3F1005332
S214015A3003F5C0339F42EED81022002108A826F0B5
S214015A400CF8002207AB029305AB019306AB314677
S214015A500093484608ABCDE90522FFF74BFE064604
S214015A600028DAD1059BA4B1AB4215D853EA050448
S214015A70D1D1069B0B48C8F8004000943A460799D6
S214015A8000682B4413F0F0FA002818BF6FF0910657
S214015A90C3E7AB42EDD2BEE75B1B9C4228BF1C4668
S214015AA0E7E700BFC430002030B58DB00C46054690
S214015AB01022002108A825F0D0FF002207AB029390
S214015AC005AB019306AB21460093284608ABCDE90A
S214015AD00522FFF70FFE0446D8B9099B012B1BD000
S214015AE0079D104B2946186813F056FBB8B90122DA
S214015AF0A5F506230C49A3F550635B0905F01F00C5
S214015B00824051F823004240284641F82320FFF7FF
S214015B10CDFD20460DB030BD6FF08404F9E76FF07F
S214015B209104F6E7C4300020641700202DE9F04FF9
S214015B3093B00446DDE91E75DDE920689346DDE98C
S214015B401C028A46DDF8889029B96FF08604204643
S214015B5013B0BDE8F08FBBF1000FF6D00FB9002DE2
S214015B60F3D108B9002AF0D116B9B8F1000FECD17B
S214015B70B9F1000FE9D02C4A934251D12388B3F5ED
S214015B80105F4DD12022002102A825F066FF2022B9
S214015B9000210AA825F061FF02A81CF037F810B111
S214015BA06FF09204D3E720465A4651460AAB1CF0E2
S214015BB056FB04460028CAD10A981CF044FB04464A
S214015BC00028C4D115B9C9F80050C0E7B74224D29D
S214015BD07B199E4221D24545B7D839462A463046DA
S214015BE025F021FF374615F00F0AAED1CDE9007634
S214015BF02B4652460AA902A8FFF700F807460028D6
S214015C00E1D042465146304625F027FF012FC9F81C
S214015C1000A0C5D16FF08B0499E74545E3D994E719
S214015C206FF0850493E700BF004440042DE9F04F70
S214015C30B3B00C4605460021164602A82022984617
S214015C403C9FDDF8009125F008FF202200210AA8DC
S214015C5025F003FF2022002112A825F0FEFE2022B7
S214015C6000211AA825F0F9FE00213C2223A8229142
S214015C7025F0F3FE34B12EB127B13E9B13B1B9F135
S214015C80000F05D16FF08604204633B0BDE8F08FD3
S214015C90B4F800B0B4F802A00BF4E043B3F5804FBB
S214015CA0F0D0384B384A2B4043F01063934202D071
S214015CB06FF08504E8E70AF10703B8EBD30F4FEA64
S214015CC0D305DFD33F9B9D4258D81AA81BF09EFFF1
S214015CD010B16FF09204D7E7002301A91AA8019327
S214015CE0FFF7E8FA0028F4D1019B284A23F07F4306
S214015CF093420193DCD947F212139B45D8D1BAF5EA
S214015D00807FD5D1224B01370A933D9B0D900233FC
S214015D1023F003030F93402317936B000E97159000
S214015D20139320464246314622AF02AB16971CF02B
S214015D3096FA04460028A7D10C9B129043F4005310
S214015D401AA80C931BF062FF0028C2D112AB0AAA54
S214015D5002A91AA8FFF7BAF9064610B1482891D148
S214015D60A6E72A4639463E9825F092FE3346BB55AD
S214015D700136402EFBD1C9F8005085E76FF0890443
S214015D8082E700BF0000FFF60000020901020100E1
S214015D9020000080F8B5134642880C460732072AD1
S214015DA04FEAD20101D0A1424DD146680588C768A5
S214015DB020221846002125F050FE360A0346002E02
S214015DC044D1002C3FD041F20102954205D0B5F5F1
S214015DD0885F02D0B5F5905F02D15C60002011E0CB
S214015DE0B5F5105F07D1182C03D0202C01D0102C4C
S214015DF029D11C60F1E705F44F42B2F5824F02D07B
S214015E006FF08500F8BDEAB2122AF9D1202CF7D13D
S214015E10104A25F0FF05B5F5E24F02600CD0B5F546
S214015E20824F10D14FF4005217F4705F09D017F467
S214015E30864F04D09A60E3E74FF48042F4E742F4D9
S214015E4080629A60CAE76FF08600DBE76FF08B002E
S214015E50D8E700BF200000802DE9F04F9A4603885E
S214015E60144603F44F42B3B0B2F5824F0F46DDF845
S214015E70F89002D06FF0850056E011B96FF08600F9
S214015E8052E0002CFAD0B9F1000FF7D0DAB2122A9C
S214015E90F0D123F0FF03B3F5E24F34D14388C9F8BC
S214015EA000305BBBE300C9F80030B3F5807FE1D179
S214015EB00023184655493D19214411F8016D15F87E
S214015EC0012D1043921B0CBF4FF0FF360026AF4248
S214015ED003EA060343EA0203EFD10028CED0002BE3
S214015EE0CCDA3C9B9C4200F28E80224639465046D4
S214015EF025F0CEFD3D9B00201C6015E0DA1DB4EBBD
S214015F00D20FD2D0BAE7B3F5824F79D10B78042BF2
S214015F10B4D12022002101A825F09FFD01A81BF085
S214015F2075FE20B16FF0920033B0BDE8F08F00909F
S214015F30694601A8FFF7BEF90028F3D1009B344A51
S214015F4023F07F43934295D94FF000083E22414605
S214015F5022A8CDF8848025F080FD01234FF0420B66
S214015F602022414609A88DF88430651E25F075FD6E
S214015F707B1C2022414611A80D9321AE0E9525F0DB
S214015F806CFD2022414619A81596CDF858B025F08B
S214015F9064FDEA005208B2F5807FCDE91D6BC9F8B1
S214015FA000200BD003D8E02A3FF464AF66E7B2F5D1
S214015FB0C07F3FF45FAFB2F5047FF5E7154B09AA42
S214015FC0099311934FF400530B934FF480431393AB
S214015FD0402311A91A9301A819ABFFF777F8D9F84E
S214015FE000300733DB085A0033B1531E013B86F8F5
S214015FF0008006F10106F9D200283FF472AF3DE7B2
S2140160006FF0960090E76FF089008DE700D30300EC
S21401601001020100200000802DE9F04F8FB0DDF86D
S214016020608081460C4692469B461A9FB8F1000F47
S21401603005D16FF0860420460FB0BDE8F08F002F23
S214016040F7D00028F5D02022002106A825F005FD6E
S21401605006A81BF0DBFD10B16FF09204EBE714F419
S2140160607C1FC4F305452AD0102DE2D8199B9D420A
S21401607033D81D4B24F47E149C4231D1002302AE4A
S214016080CDE90233CDE9043352465B4649460096D4
S21401609006A8FEF70BFE044698B92A463146404646
S2140160A025F0F6FC234633550134102CFBD1002491
S2140160B03D6006A81BF0B4FD0028BCD0CCE7102537
S2140160C0D4E7212806D0012814BF6FF092046FF0A0
S2140160D08B04EEE76FF08604EBE76FF08904AAE71E
S2140160E06FF08504A7E700BF0002C00370B50E4637
S2140160F01446054610B96FF0860070BD0029FAD027
S2140161003822002125F0A9FC094B24F47E129A427C
S2140161100AD13388B3F5105F06D1C4F30543102BBB
S214016120E9D800202C60E8E76FF08500E5E700BFBE
S2140161300002C003F0B50F4616461D4604468BB056
S21401614088B302B97BBB2022002102A825F085FC7A
S21401615002A81BF05BFD20B16FF0920420460BB045
S214016160F0BD2368114A23F47E13934215D135B945
S214016170002402A81BF054FD0028EFD0ECE73346BC
S2140161803A46009502A9201DFEF772FE012807D0A7
S2140161900028EDD06FF09204EBE76FF08804E8E793
S2140161A06FF08B04E5E76FF08604D7E70002C003C3
S2140161B02DE9F0418CB0884616461D460446129FCE
S2140161C0002840D0002A3ED0002B3CD0002F3AD0E9
S2140161D0102B036828BF102513F47C1FC3F3054258
S2140161E002D0954228BF15461A4A23F47E139342DD
S2140161F02CD12022002104A825F02FFC002304A87E
S214016200CDE90033CDE902331BF000FD40B96B4602
S214016210424604A9201DFEF7A7FD30B100233B60CE
S2140162206FF092000CB0BDE8F08104A81BF0F8FCFA
S21401623004460028F2D12A466946304625F028FC55
S21401624020463D60EEE76FF08600EBE76FF08800D2
S214016250E8E700BF0002C0030023C36001F1380372
S214016260036120230A6843618B6D0B4922F47E1279
S2140162708A42436003D001F580718A4208D1102B0F
S21401628001D0182B02D1036000207047202BFAD0D2
S2140162906FF08800704700BF0001C00330B58BB0B7
S2140162A06D46604C0FCC0FC554F8043B68462B6016
S2140162B04FF07E6393F89C306D46FF2B08BF252375
S2140162C08DF80130FEF794F83220FEF7C9F80FCCAE
S2140162D00FC50FCC0FC594E8030085E80300524BA9
S2140162E0D3F84C21110340F18380A3F5FE431C88AB
S2140162F04FF6FF739C4208BF81248DF81940FEF7C4
S21401630045F8044484F3080448488DF81840FDF71E
S214016310DFF96846FDF76EFF3220FEF7A7F8444C1A
S2140163204448FDF717FF4448FEF7A6F81BF08EFB1E
S214016330236F002023F0070343F002032367236F34
S21401634023F4505343F4806323671BF086FB3B4BD7
S214016350D3F8FC20D2014FD4D4F8803023F00303C5
S21401636043F00203C4F88030314BD3F8202122F0E9
S214016370070242F00102C3F82021D3F8802122F05F
S214016380030242F00102C3F88021D3F8402122F033
S214016390030242F00202C3F84021D3F8602122F042
S2140163A0030242F00202C3F86021D3F8402222F031
S2140163B0030242F00202C3F84022D3F8002222F080
S2140163C0070242F00202C3F80022D3F8082222F0A4
S2140163D0070242F00202C3F80822FDF79BFE4FF0C7
S2140163E0E0220020136963F0040313610BB030BD93
S2140163F0D3F85041E4B280E7D3F8FC2022F0807253
S214016400C3F8FC20D4F8802022F0030242F00202F6
S214016410C4F88020D3F8FC2042F08072C3F8FC2038
S214016420A2E700BF20D303000080E00F00F049027E
S2140164300080005000B4C404C0EA210100ED00E071
S2140164406FF00403502110B50A480B4C13F0800F6F
S21401645003F1010206D123443D2A83F800131346B3
S214016460F4D110BD03F00F03043B03441976134621
S214016470ECE700BF00ED00E000E100E0BFF34F8F66
S2140164800549064BCA6802F4E0621343CB60BFF3CA
S2140164904F8F00BFFDE700BF00ED00E00400FA05E6
S2140164A0002807DB01234109034A00F01F0083404F
S2140164B042F82130704700BF00E100E0002808DB09
S2140164C001224309034900F01F008240603341F86E
S2140164D02320704700E100E00028ACBF00F16040D7
S2140164E0064B4FEA0111C9B2ABBF00F5614000F09F
S2140164F00F0080F800131954704700BF14ED00E038
S21401650073B50024684600F0F1FA0C4B00981C6045
S2140165100B4B0C4D1C600C4E0C4B306018602C6005
S2140165201CF067FA2046019B3268013BDB0853806A
S2140165302B6801332B6002B070BD00BF7C170020B2
S2140165407817002080170020881700208417002065
S2140165502DE9F04F0027924687B04A1C0E4614BF1D
S2140165600C46082499460597002B00F0B0801F6062
S214016570002800F0AE80073020F007051BF0FDF97B
S21401658005AB31460290009352463B46284600F042
S214016590B7FA059E804606B130B902981BF0F3F9AA
S2140165A0192007B0BDE8F08FDFF83CB17788DBF83B
S2140165B00010FB00C0EBC7070139272FCBF80010EE
S2140165C06CD9BAF1000F48D1854205F1080740D0D1
S2140165D0214630461CF08BF904460590059B1F4466
S2140165E038461CF006FA059905F10F034A88C3F3ED
S2140165F0CF03D21A7A80CA88BB8062B3D31A9BB201
S21401660001EBC202FB8093808B88ED08A380BB88D8
S2140166100022314638466580E38000F0E9FA2378A7
S21401662043F001032370DBF800300133CBF8003070
S2140166302B4A02981368083443441360294A1168A8
S2140166408B4288BF13601BF09EF90020C9F80040FA
S214016650A7E73446C2E7FA80D6E7F4192046039343
S2140166601CF0C7F908F10702D20805996280FA1DE5
S214016670D208A280CA887AB1D200039BD01DC31A61
S2140166804344C3F3CF030A44E3809380A388013FC6
S214016690FF084F80CB80C2E7E280F7E7BAF1010F2F
S2140166A019D106F10803B3FBF4F204FB1233A3B1CC
S2140166B0214630461CF01BF904462378012243F09C
S2140166C0010331462046237000F092FAB0E72220FB
S2140166D067E7212065E78542EAD13446EDE700BF4A
S2140166E07C17002078170020801700202DE9F3473B
S2140166F00446684600F0FAF9002C00F0C2801BF050
S2140167003CF914F8085CEB0704D534F806ECBEF146
S214016710000F05D11BF037F9012002B0BDE8F08764
S214016720DFF870C134F8041CDCF800800EF10102B9
S21401673008F10103A4F1080692B2CCF80030002952
S21401674038D0A6EBC10393F800A0B3F806901AF070
S214016750010F5F8805F0020520D105BBA9EB0701F3
S214016760012927D80EF102021744BAB2CCF80080EC
S21401677034F8025C05BB14F8085C511E6FF3000583
S21401678004F8085C002589B224F8065C598019785B
S21401679065F3000119700021D98031E055B111442B
S2140167A08AB214F8081C6FF3410104F8081C002192
S2140167B09980DDE73346DBE706EBC508DDE90071C6
S2140167C00F44B845D7D216F83560414616F0010693
S2140167D02ED014F8086C551E6FF3000604F8086CEA
S2140167E0002624F8066C1C78ADB266F300045D80C2
S2140167F01C70C3F107040C44C4F3CF04DC808C8006
S214016800214C216819B1994201D8498801B9236000
S2140168101E4C216819B1994201D3498801B92360F8
S2140168201B490B689B1A0B601BF0ADF8002074E740
S214016830A5EB0E05012DCCD8B8F80250A8F80260D9
S21401684001352A44B8F8065092B2C5B108EBC50125
S214016850DCF80050013DCCF8005014F8085C6FF3EA
S214016860000504F8085C002524F8065C541E5C80CC
S2140168701C7865F300041C700029BAD18BE7294601
S214016880E6E7222049E700BF88170020841700208A
S2140168907C170020801700202DE9F84F04460D468E
S2140168A09146002A00F017810023136040B90029A1
S2140168B000F0138101462846BDE8F84F1CF057B892
S2140168C019B9BDE8F84FFFF711BF1BF056F834F8B9
S2140168D0063C07354FEAC30825F00705A8450746D5
S2140168E0A4F1080080F0848034F8022C002A65D0D8
S2140168F000EBC20A10F83220D2075FD4BAF80210B1
S214016900A8EB050616EBC10658D41F2E3DDDC5F3D0
S214016910CF0304EB050B24F8063C013324F8023CB4
S21401692058461CF066F834F8023CC6F3CF06ABF8BE
S2140169300430BAF80630ABF802601BB3BAF802208E
S2140169409A1A1644B6B20AEBC303ABF806609E80E9
S21401695000225146584600F04BF950461CF049F8C3
S214016960C9F800405E4A13682B44A3EB0803136082
S2140169705C4A11688B4200D9136038461BF003F855
S214016980002625E0ABF80630E2E7574E0B443268A6
S2140169909BB2013A32605A1C24F8062CBAF806203B
S2140169A04AB102339BB20AEBC20224F8023C93803E
S2140169B001225146CFE724F8022CF9E74A46002186
S2140169C028461BF0D4FF064628B138461AF0DBFFEE
S2140169D03046BDE8F88F42462146D9F8000025F03A
S2140169E057F82046FFF782FE06460028BAD0ECE7A5
S2140169F06ED934F8023CA8EB050B002B38D000EB1F
S214016A00C30610F83330DB0733D4C5F3CF0304EBEA
S214016A10050A24F8063C013324F8023C50461BF0D4
S214016A20E8FF738834F8022C03EBDB03AAF8042092
S214016A30F2889BB2AAF80230BAB101339BB206EBD8
S214016A40C202AAF80630938050460022314600F072
S214016A50CFF830461BF0CDFF214BC9F800401A682D
S214016A601544A5EB08051D6087E7AAF80620EBE7A5
S214016A701E46BBF1270FEFD9C5F3CF0304EB050A7A
S214016A8024F8063C013324F8023C50461BF0B1FFC3
S214016A9034F8022CCBF3CF03AAF80230AAF804206C
S214016AA096B1F28882B101339BB206EBC206AAF810
S214016AB00630B3800C4A0021136850460133136038
S214016AC0012200F095F8C7E70023AAF80630F1E79F
S214016AD0C9F8004051E722267AE7212678E700BF69
S214016AE07C17002078170020801700200249034AEF
S214016AF00160521A42607047C032002000800120B7
S214016B00F0B506460020059F4C1C08BF08213860DA
S214016B10BAB91F480568002D38D0B5F802E0DB0089
S214016B2003EBCE0EC1F1000C2878C0070BD52ABBAB
S214016B30E888B0B105EBC005B5F802E003EBCE0E70
S214016B40F2E71448E6E7B645F1D35AB905F1080469
S214016B50B4FBF1F001FB1044A0190CB17045E7D865
S214016B603D60F0BD08290FD06C88013405EBC404E4
S214016B70A01B00EA0C00201A8645F1D2A88800283E
S214016B80EFD0A5EBC005D7E73046E9E72846E8E7AA
S214016B908817002084170020134B13B51B68044682
S214016BA00846FBB121B96846FFF7A0FF6CB900980B
S214016BB00378D90707D55CB9C3889BB100EBC3003E
S214016BC00378DA07F8D402B010BD084B1868EFE76F
S214016BD0012C07D183882BB1A0EBC3000378DB0718
S214016BE0F8D4F0E70020EEE7801700208417002095
S214016BF0F8B5124F05460C463B68114EB2B19942A4
S214016C0009D041B13368994204D129460120FFF7E2
S214016C10C3FF3060F8BD29460020FFF7BDFF33688B
S214016C203860A342F1D0002CEFD0F3E799423368E5
S214016C3008BF38608B4208BF3060EBE7881700203A
S214016C4084170020BFF35F8F074B5A6A22F4803205
S214016C505A62D3F8942022F00102C3F89420BFF3BD
S214016C604F8FBFF36F8F704700ED00E038B5FFF729
S214016C70E9FF284A2848D2F8C030284D23F0FF0300
S214016C8043F0A003C2F8C030254B04689D4204F1CE
S214016C9001011ED1234BC2F89840C2F89C3003F57F
S214016CA0BF3303F5FF73C2F8A0300160BFF35F8FF7
S214016CB00522184BC3F894205A6A42F480325A626D
S214016CC0BFF34F8FBFF36F8FBFF34F8FBFF36F8F3E
S214016CD038BD23F01F03203BB3F1005F09D3C2F890
S214016CE09840104C43F00103C2F89C40C2F8A03013
S214016CF001600D4B0168074A23F01F0343F00303AD
S214016D00C2F89810C2F89C30084B0131C2F8A03086
S214016D10CBE700BF00ED00E08C170020803000209C
S214016D20E02E0020030000209F300020E17F01209C
S214016D302DE9F0410D461146DFF8E080D8F8004015
S214016D40B4F5807F34BF00271A27FFF77BFF1F2982
S214016D502ED90021C2061CBF20F01F0020302E4E67
S214016D60EB0618BF25F01F05CBB29C4235D8D6F8E6
S214016D70C03020F01F0023F47F4343F48073C6F82D
S214016D80C03040F003041AF0F8FDD8F8003025F0C2
S214016D901F0141F00301C6F89830C6F89C40C6F8BA
S214016DA0A0101AF0F0FDD8F800300133C8F8003012
S214016DB0BFF35F8F0522184BC3F894205A6A42F43A
S214016DC080325A62BFF34F8FBFF36F8FBFF34F8F7F
S214016DD0BFF36F8F3846BDE8F081C6F89830D6F815
S214016DE09C30D6F8A02023F01F03984222F01F0201
S214016DF001D195420BD0904201D89D4209D2D6F8D6
S214016E009830013123F0FF03C6F89830ACE700272D
S214016E10CEE72827CCE700BF00ED00E08C17002066
S214016E20BFF34F8F0549064BCA6802F4E06213436D
S214016E30CB60BFF34F8F00BFFDE700BF00ED00E062
S214016E400400FA05054B1A782AB95B78002B0CBFAB
S214016E500320022070470120704700BFF32D002059
S214016E600329F8B598BF124B05460E468CBF002481
S214016E705C5C032805D8DFE800F002080B0E44F03E
S214016E8002040C4B1F684FB9F8BD44F00804F8E73C
S214016E9044F02004F5E744F08004F2E77B681A68C2
S214016EA0144203D0314628465B6898473F68EAE7B4
S214016EB074D30300BC17002038B5104D2B78ABB146
S214016EC00F4C23781BB100F037FB00232370002002
S214016ED01BF0A5FD0B4C50B100F080FB00230121F7
S214016EE020782B70FFF7BCFF0123237038BD0122E9
S214016EF0054B1A702278054B1A70F7E7EF2D002024
S214016F00ED2D0020F52D0020F02D0020F12D002084
S214016F1010B51AF02BFD064B04461B781BB1BDE8D5
S214016F2010401AF027BDFFF7C7FF2046F7E700BF5E
S214016F30EC2D0020094A137830B101331370084B49
S214016F401B78012B03D87047013B13707047054B24
S214016F501B780BB9FFF7B0BF704700BFF32D0020B9
S214016F60F52D0020F02D002070B51AF0FFFC174E0D
S214016F70054617481BF030FC3378D3B900F05EFCA9
S214016F80044620B128461AF0F5FC204670BD11488B
S214016F901AF0FCFC00F01EFF0F4B1C6000F036FDE3
S214016FA00E4B0F4A1860536F43F0010353671BF0F3
S214016FB03DFD00F0C5F91BF034FD0A4B00241860B6
S214016FC00123284633701AF0D5FCDEE7F62D0020A3
S214016FD070D30300BC17002090170020B8170020BC
S214016FE000400050941700202DE9F843284A013844
S214016FF0135C39B1274F013339781354012904D86A
S214017000BDE8F883013B1354FAE7FFF71BFF01289D
S214017010044635D81AF0AAFCDFF88480054698F8AD
S214017020003013B31C4E33781BB9012232701B4A51
S2140170301370DFF8709099F8003023B100F07CFAF5
S214017040002389F8003028461AF094FC01201BF032
S214017050E6FC1AF08BFC337805461BB100F0BEFA4D
S21401706000233370002388F8003028461AF082FC8B
S21401707038788442C4D02146FFF7F2FE3C70BFE761
S2140170800329F5D10228F3D11BF0CFFCF0E700BFAE
S214017090F32D0020F52D0020EC2D0020F02D0020F2
S2140170A0EF2D0020ED2D002038B51AF05FFC094BBE
S2140170B005461B78012B04D81AF05CFC00242046F8
S2140170C038BD054B1C6800F0C7FA044428461AF080
S2140170D051FCF4E7F52D00209017002038B54160EB
S2140170E004461AF043FC0546214604481AF051FCB2
S2140170F02846BDE838401AF03DBC00BFBC1700204A
S214017100054B1B685843054B00F5742000F23F20E1
S214017110B0FBF3F0704700BFB817002040420F00E5
S2140171202DE9FF47EFF3108772B6AFF300801AF030
S2140171307AFB002871D06D4EDFF8D481337823B105
S2140171400020FFF7F7FE00233370FFF77BFE0446AF
S214017150002869D0841EE4B2012C6CD9FFF772FEB8
S21401716001280546624CDFF8AC9100F28E8020784B
S214017170A84205D099F80030002B00F0A5802570B4
S214017180207800F053FA99F8003013B1594B1B7868
S2140171902370AFF3008007B962B6EFF3108772B6BB
S2140171A0554B1A7852B100221A70524B20781B7830
S2140171B0984203D101212170FFF752FE4F4800F09B
S2140171C077FB1AF03FFB05460028B7D1DFF8488168
S2140171D098F80030A3B189F80000DFF8309199F8EB
S2140171E000301BB100F0A8F989F8005000201BF010
S2140171F016FC002870D000F0F1F9002388F8003062
S214017200337823B10020FFF795FE00233370002169
S2140172102078FFF725FE00232370AFF3008007B91F
S21401722062B604B0BDE8F0873378002B96D0FFF73E
S21401723081FE347092E7002003A900F087FB044624
S21401724000288BD1D8F80030039A9A4205D801203D
S214017250FFF770FE0123337080E7294B1D6800F0AD
S214017260FBF9039B05449D42F1D200F00DFA820022
S214017270039942F0020292B2CDE900422346214A26
S214017280491B1E481BF0DDFB68E7DFF88CA09AF867
S21401729000300BB900F0E2F82078854203D099F867
S2140172A00030ABB125709AF80030002B7FF468AF40
S2140172B0154B1B7823B900F039F90122134B1A70CC
S2140172C001238AF800305BE72946FFF7C9FD56E738
S2140172D02946FFF7C5FDE5E7012000F0A7F907B944
S2140172E062B6EFF3108772B680E700BFEE2D00207E
S2140172F0F52D0020F12D0020EA2D00209817002002
S21401730090170020116F0100F22D0020ED2D0020B6
S21401731094170020F02D0020EF2D002010B51AF054
S21401732025FB0022054B1C781A701AF023FB00F08F
S2140173308FFCE4B22043C0B210BD00BFEB2D00208D
S2140173403B4A3C49136F70B503F007030B60D2F854
S2140173500011394801F0030101603849384D896947
S214017360032BC1F34001297059D0D2F8203103F024
S2140173700703981E43424341D2F88022314C02F063
S214017380010213434FF4C8702370FFF7B9FE0022C1
S2140173902D4B2E4918602E4E0B680132D2B20A2AA6
S2140173A046F8040BF9D1034400EBC00003440B601C
S2140173B02B78284D63B323781D4A3BB9D2F80031A8
S2140173C003F00303591E4B424B412370D2F80031A0
S2140173D003F00303022B24D0032B25D0012B17D156
S2140173E0FCF770F9024698B1144B1B4EDC6800237B
S2140173F01946C4F30B04013404EB84040138E4FB9E
S214017400060118F00BFEFFF77BFE2B6803442B608A
S2140174101F20FFF775FE2B6803442B6070BD012308
S214017420AAE7FCF7ADF9DDE71AF098FADAE700BF4C
S21401743000800050F8170020FC17002000C0015003
S214017440FA2D0020FB2D0020C0170020C4170020B5
S214017450C8170020F417002040420F00044B054ACD
S214017460D3F8203103F0070313601AF005BB00BF01
S214017470008000500018002008B50D4B1A7892B114
S21401748000221A700B4A136F23F0070343F001031F
S2140174901367D2F8203123F0070343F00403C2F840
S2140174A02031FCF7F9F80122034B5A6708BD00BFEB
S2140174B0F92D00200080005000E000500122154BFD
S2140174C010B55A67144B154C1B7813B302201BF0EA
S2140174D05DFBF0B100F06AFAD8B1A36DD90302D50D
S2140174E0E36D9A0715D40D4B9B6DDB0711D4012272
S2140174F00B4B1A701BF029FBBDE81040094B0A4ADA
S2140175001860136F23F0070343F003031367FCF7B8
S214017510C3B810BD00D00050FB2D002000C00050A5
S214017520F82D0020F0170020008000500122014BAA
S2140175301A707047F92D0020F8B51F4B1B78002BE9
S21401754039D01E4C2378B3B91D4B9A6DD10302D5A1
S214017550DA6D92072FD49B6DDB072CD41BF0F5FA5E
S214017560184B194A1860136F23F0070343F00303FF
S2140175701367FCF791F81BF0E8FA124B134D1B68E2
S214017580134EC01A2B78134F56F8232046F82300C3
S214017590111A3A681048521A0A213A600932B2FBA7
S2140175A0F1F20133DBB20260B3FBF1F201FB1233FD
S2140175B02B7000232370F8BDFB2D0020F82D002032
S2140175C000C00050F017002000800050F72D00206A
S2140175D0C8170020C4170020C017002008B51AF0ED
S2140175E04CFA0D4A0D49136F096823F007030B4344
S2140175F013670B49D2F82031096823F007030B43C0
S214017600C2F82031074B1B7813B10122064B9A6250
S214017610BDE80840FCF740B800800050F81700208D
S21401762000180020FB2D002000E0005002280AD0A0
S21401763003280BD001280CD1064A136923F0040352
S214017640136130BF70470020FCF77CBF0020FCF7B9
S21401765099BF704700ED00E0054B187818B1054B4F
S214017660186800EBD000044B1B681844704700BF35
S214017670FB2D0020C0170020F41700200122014B2B
S2140176801A707047FB2D0020014B1878704700BF19
S214017690FB2D002038B51BF066FA0025084B094C77
S2140176A01A682368C31A2AB123B15169994203D3D0
S2140176B0C91A5161206038BD55615B1A9268F2E7BC
S2140176C00C18002008180020C38870B504460D4623
S2140176D03BB9FFF7E9FC8542064602D21BF093F957
S2140176E035460E4965610B688BB90C60A3600DE0E9
S2140176F0AD1A9A68184665616AB113465A69AA4274
S214017700F6D930B18460521BA3605A6170BD002067
S214017710F4E70C60F7E79C60A260F7E70C1800201E
S21401772038B5134D2B685B6993B1124A0220146871
S2140177301C441BF01FFA204600F0D4FA00230E4921
S2140177402A680B70D088800709D501230B7038BDD5
S21401775002201BF00FFA022000F00EFBEEE7926803
S214017760002AF4D050690344012BEBD9EFE700BFA0
S2140177700C18002008180020FD2D002070B51646B4
S2140177809DF81420C0E903360271049ABDF818303A
S2140177900260002204460D468260C380EEB91BF0EB
S2140177A0E2F92844A0619DB12E461AF0DFF805469D
S2140177B0FFF770FF31462046FFF786FF104B1B6828
S2140177C0A34201D1FFF7ACFF28461AF0D3F802E036
S2140177D0E36865617BB9002070BD1BF0C4F93044D5
S2140177E0A061002DE0D1E3686561002BDDD0204665
S2140177F021689847D9E7204621689847EBE700BFFC
S2140178000C18002000220C490B687BB183420AD178
S21401781083687AB1936083681BB15A6941690A44E7
S2140178205A61002070471A469B68EEE70028EFD0A1
S214017830022070470B60EEE70C18002070B51AF0B6
S2140178409CF8144E05463478FCB9134B1C60134B58
S2140178501C60134B1C8000F007FA01201BF08AF90C
S21401786000F0ACFA0F4B0246186020B928461AF011
S2140178708AF8232070BD234640F2E7310A4818F003
S214017880CDFB0A4B18600123337028461AF07BF8AB
S2140178900020EFE7FE2D00200C180020081800201D
S2140178A0522500201018002018FCFFFF04180020A5
S2140178B070B5044640B31AF059F8144E0546FFF762
S2140178C0E9FE3068A04209D02046FFF79BFF044638
