:020000021000EC
:10200000C00A0020593C01005B3103005B31030032
:10201000B34603005B3103005B3103005B31030017
:102020005B3103005B3103005B3103005B31030074
:102030005B31030064F20300BF4803005B3103001F
:102040005B3103005B3103005B3103005B31030054
:102050005B3103005B3103005B3103005B31030044
:102060005B3103005B310300718F01009136010089
:10207000FF2F03005B3103005B3103005B31030082
:102080005B3103005B3103005B3103005B31030014
:102090005B3103001D4401005B3103005B31030031
:1020A0005B3103005D2701003D2701005B31030028
:1020B0005B3103005B3103005B3103002D11030032
:1020C000FFD50300FBD50300C10803000BD60300B6
:1020D00003D60300F110030007D6030025EE02002B
:1020E0006D1103005B3103005B3103005B310300C2
:1020F0005B3103005B3103005B3103005B310300A4
:102100005B3103005B3103005B3103005B31030093
:102110005B3103005B3103005B3103005B31030083
:102120005B3103005B3103005B3103005B31030073
:042130005B3103001C
:10213400F0B5114A114C124E00F00105E3695F0736
:1021440013D40DB9334213D103EA00078F4207D1E8
:102154000B4A1A40002A0CBF00206FF00100F0BDAA
:10216400013AEBD16FF00200F9E74FF0FF30F6E7E8
:102174006FF00100F3E700BF809698000000035061
:10218400020001000B4B70B5D96911F480310DD1F7
:1021940001244FF48072084E084DF46020462C64EC
:1021A4001A61FFF7C5FF3464EC6070BD6FF0010085
:1021B400FBE700BF00000350001003500020035051
:1021C40038B541F6713301220C4C0021E569E36313
:1021D4000B4B05F48035DA60022360612120236112
:1021E400FFF7A6FF10B92120FFF7A2FF0122054B3C
:1021F400DA600DB10023E36338BD00BF0000035073
:10220400001003500020035070B5134C6061E36963
:102214005B071ED40E4656F8043B8D18A361AE42EC
:102224000BD10423002121202361FFF781FF58B93A
:10223400BDE870402120FFF77BBF08210846FFF767
:1022440077FF10B10423236170BD56F8043BA361EA
:10225400E5E74FF0FF30F7E7000003502DE9F843BE
:10226400154641F67132164B8946DF69DA6301225D
:10227400064603F58053DFF8508007F48037DA60B0
:1022840055B9284601220F4BDA601FB10022A3F58D
:102294000053DA63BDE8F88306F5005404EA080441
:1022A400A41BAC4228BF2C46494622463046FFF7C1
:1022B400ABFF0028E6D12644A1442D1BE0E700BF74
:1022C400000003500020035000E0FFFF0000000066
:1022E000013800D0FCE77047002370B5404C05462C
:1022F0008AB0E36318B1008823600DF0E1F83D482F
:102300002AF0B3FC3C4E3D4B304633603C4B73608F
:1023100026F0BFF80021304618F0FEF932A3D3E9C9
:102320000023A062C4E9062326F0BEF8D4E9062300
:1023300019431043C4E90601CDE900014FF0FF3312
:102340004FF0FF32A06A2AF0E4FC02224FF0FF3186
:10235000A06A2AF0E3FC01200CF00EFD4FF400739C
:1023600000222849A06A2AF02AFDB0F5007F38D162
:1023700000239422CDE9073309933C23CDE90332AE
:1023800005939623A06A03A9069318F0ADFA35B316
:10239000287C0DF035F90546F0B9A06A2AF0EBFD6E
:1023A0000DF0DCF80CF0CAFC20B14FF48070002175
:1023B00009F052FD0CF0D2FC20B14FF40060002176
:1023C00009F04AFD26F096F9012018F0FBF90E4AB3
:1023D0000E49A06A26F05BF828460AB070BDFF20BF
:1023E000D7E70725F8E700BF0DD50155200000000D
:1023F000300B0020690345EC0C1E0020FDEB0100B2
:102400001C1E00200C1C002037840300778403006E
:102410000348044B834202D0034B03B11847704773
:10242000743300207433002000000000064B07497D
:10243000C91A891048BF0131491003D0044B0BB1B0
:1024400001481847704700BF7433002074330020E0
:102450000000000010B5064C237843B9FFF7D8FF01
:10246000044B13B10448AFF300800123237010BD67
:1024700026260020000000003C22040008B5054B81
:102480001BB105490548AFF30080BDE80840FFF7E0
:10249000CDBF00BF00000000980D00203C220400CA
:1024A000A3F5803A704700BF174B002B08BF134BB2
:1024B0009D46FFF7F5FF00218B460F461348144A4F
:1024C000121A2BF043F90E4B002B00D098470D4BFE
:1024D000002B00D098470020002104000D000D487B
:1024E000002802D00C48AFF300801FF0EBF9200069
:1024F000290000F0A9FE1EF0F7FF00BF0000080051
:102500000000000000000000C00A0020C00A0020F7
:10251000802F0020000000000000000038B50125D9
:102520000B4C0021012020F0DBFA04F500531D6460
:1025300044F2506004F5805406F058FD14202564E0
:1025400006F054FD2846BDE83840002120F0CDBA01
:1025500000C0035010B50B4C282006F047FD636CFB
:10256000DA070CD4502006F041FD636C13F0010F24
:102570000CBFFF200120636CDB07FCD410BD0020E2
:10258000F9E700BF00C00350F8B500240725012774
:102590000A4E736CD907FCD5282006F027FD726C13
:1025A00007FA05F3D2074ABF1C439C43E4B2736C9D
:1025B000DB07FCD4013DECD22046F8BD00C003503F
:1025C0002DE9F0410446FFF7A9FFFFF7C3FF134BC6
:1025D000DFF85C801870FFF7D7FF88F80000FFF77E
:1025E000D3FF0F4E0F4F3070FFF7CEFF3870FFF75D
:1025F000CBFF0D4D2870FFF7C7FF0C4B98F800205C
:102600001880337839782D7813440B442B44984242
:1026100008BFC4E90012BDE8F08100BF27260020F2
:102620002A2600202926002028260020C825002050
:102630002B26002070B5324E324C3046FFF7C0FFDB
:102640003368314D2360736803202B6001F044F937
:1026500060B12E4E2E49306821F0BBFD20F01AFDEE
:1026600020F019FD2B49306821F0B3FD032001F063
:1026700033F968B1254E2649306821F0AAFD20F0D3
:1026800009FD20F008FD22682349306821F0A1FDF2
:10269000032001F021F968B11C4E1D49306821F07A
:1026A00098FD20F0F7FC20F0F6FC2A681B49306802
:1026B00021F08FFD14212368194A1A481FF07EF873
:1026C000184800F057FA2B681421174A15481FF0D4
:1026D00075F8144800F060FA2B684A2B06D9134AA3
:1026E00012681AB90821124AC2F8A01011492278BA
:1026F00009781148DBB2BDE8704000F0C7BA00BFEE
:10270000B80D0020B40D0020B00D0020280F0020CF
:10271000E8E60300EDE60300F9E6030004E7030042
:102720000FE703002C2600201CE70300F80D002013
:1027300000D003504A3300204026002045F2555176
:10274000054B03F50052C2F82014042203F5405350
:10275000C3F8A020704700BF00C003504AF6AA216A
:10276000064B03F50052C2F82014082203F540532B
:10277000C3F8A0200122024B1A60704700C003502A
:10278000F80D002037B520F0B5F901234FF4FA61B8
:102790000093164A0023164801F040F9054610B38D
:1027A000144C1549206821F014FD1449206821F0CB
:1027B00010FD20F06FFC20F06EFC114B114A0093CD
:1027C0001149A023206821F004FD10492B46104A2E
:1027D000206821F0FEFC284601F0C4F80D4920686D
:1027E00021F0F7FCFEE703B030BD00BF3526010045
:1027F000C00D0020280F0020F7E6030026E70300A5
:10280000BAE703002BE7030034E7030043E70300C4
:1028100040E7030058E70300AB4B2DE9F041D3F844
:10282000A070D3F8A0600368A84A23F47F4323F084
:102830000703934288B006D0A54A934200F0ED808A
:1028400008B0BDE8F0810DF10F0104A810F046FDBD
:10285000A04C054608B3A049206821F0BAFC9F4966
:10286000206821F0B6FC20F015FC20F014FC9C4BF5
:102870009C4A00939C49C723206821F0AAFC9B49ED
:102880002B469B4A206821F0A4FC284601F06AF8F8
:102890009849206821F09DFCFEE7BDF81430014600
:1028A0005BBAADF818309DF8133008228DF81A3055
:1028B000FF238DF81B30FE238DF81C309DF812305D
:1028C00018208DF81D30BDF810305BBAADF81E3001
:1028D00006AB10F0D5FC054608B37F49206821F00F
:1028E00078FC7E49206821F074FC20F0D3FB20F0B6
:1028F000D2FB7B4B7B4A00937B49D723206821F096
:1029000068FC7A492B467A4A206821F062FC284606
:1029100001F028F87749206821F05BFCFEE7DFF83A
:10292000E881404610F00EFC054608B36A4920686D
:1029300021F04FFC6949206821F04BFC20F0AAFBF4
:1029400020F0A9FB664B674A00936749DB232068A8
:1029500021F03FFC65492B46654A206821F039FC8F
:10296000284600F0FFFF6349206821F032FCFEE7B3
:102970004FF4C86200900346114698F8000010F02A
:10298000F9FB054608B35449206821F022FC53495D
:10299000206821F01EFC20F07DFB20F07CFB504BDA
:1029A000504A00935049E423206821F012FC4F491B
:1029B0002B464F4A206821F00CFC284600F0D2FF3D
:1029C0004C49206821F005FCFEE7072198F800003B
:1029D00010F0F2FB484BC6F3C00640F2FF2206217E
:1029E000464801930096C7F3800320F0B6F820F024
:1029F00051FB20F050FB4249206821F0EAFB98F897
:102A000000103E4800F0DCF820F044FB20F043FBCF
:102A10003C49206821F0DDFB12E73B4C0221207885
:102A200010F0F4FB054618B32A4C2B49206821F01E
:102A3000D0FB2A49206821F0CCFB20F02BFB20F0B2
:102A40002AFB274B274A009327494FF482732068BB
:102A500021F0BFFB25492B46254A206821F0B9FB10
:102A6000284600F07FFF2349206821F0B2FBFEE7F3
:102A70000221207810F0DEFB054600283FF4E0AE8E
:102A8000144C1549206821F0A4FB1449206821F05A
:102A9000A0FB20F0FFFA20F0FEFA114B114A009340
:102AA000114940F20913206821F093FB0F492B468E
:102AB0000F4A206821F08DFB284600F053FF0D4996
:102AC000206821F086FBFEE700C00350A000010053
:102AD000A0000601280F0020F7E6030026E7030008
:102AE000ABE703002BE7030034E7030043E70300F1
:102AF00040E7030058E7030069E703004026002091
:102B000079E7030095E703004A33002030B5154C00
:102B100085B020F0D5FA002000F0D4F9204600F06E
:102B200039FA00256FF07F432046C4E9013520F0D3
:102B300051F820460C4920F0B1F90C4B20461A6898
:102B4000511C1960052301210093CDE90131D2B256
:102B50002B46074920F0B5F905B0BDE8304000F03C
:102B6000D9B900BF000E002078E80300FC0D00205A
:102B7000C3E703001FB5052301220146CDE9013259
:102B800000930448002320F09CF905B05DF804EBA5
:102B900000F0C0B9000E00201FB505230122014638
:102BA000CDE90132009302220023044820F089F984
:102BB00005B05DF804EB00F0ADB900BF000E0020D9
:102BC00037B50C460346027F0021204610F008FB73
:102BD0000546F8B1234C2449206821F0FAFA23492C
:102BE000206821F0F6FA20F055FA20F054FA204B34
:102BF000204A009320493223206821F0EAFA1F4A34
:102C00001F49206821F0E5FA2A461E49206821F074
:102C1000E0FAFEE70221204610F00CFB0546F8B171
:102C2000104C1149206821F0D4FA1049206821F095
:102C3000D0FA20F02FFA20F02EFA0D4B0D4A009317
:102C40000D493723206821F0C4FA0C4A0C4920684A
:102C500021F0BFFA2A460C49206821F0BAFAFEE7B3
:102C600003B030BD280F0020F7E6030026E703007D
:102C70006DE80300CDE7030034E70300DDE7030060
:102C8000F0E7030008E8030034E8030037B5044622
:102C90000846A372190A130A6172E371227223466D
:102CA0000021227F10F09CFA0546F8B1104C114922
:102CB000206821F08EFA1049206821F08AFA20F06D
:102CC000E9F920F0E8F90D4B0D4A00930D49462330
:102CD000206821F07EFA0C4A0C49206821F079FA2C
:102CE0002A460B49206821F074FAFEE703B030BD94
:102CF000280F0020F7E6030026E703005DE8030045
:102D0000CDE7030034E70300DDE70300F0E703004D
:102D100008E803000123054A411100F01F00834029
:102D200052F82100034342F8213070472C0E002056
:102D3000044B1B681BB1044B03600020704701204B
:102D4000704700BF3C0E0020CA25002070B50D4C16
:102D5000246884B10C4C85182688B5420DDC668841
:102D6000CD18B54209DC52B14BB1A0800020E18002
:102D70002281638170BD0120FCE70420FAE7052071
:102D8000F8E700BF3C0E0020CA2500202DE9F74FD0
:102D90009946494B1B68002B00F08A80B9F1000767
:102DA00018BF01274FF0010BDFF814A17F42BAF8DA
:102DB0000650BAF80A300D9E2B449BB20D44009386
:102DC000FFB2ADB21EB9304603B0BDE8F08F009A35
:102DD000ABB29A426ED9BAF80840BAF80430241A55
:102DE000B44228BF34461844344B361B80B203EB40
:102DF0000512B9F1000F0AD0072C26D80444A042CE
:102E000016D32846FFF786FF01350020DAE7072CA6
:102E10001BD80444A042F4D2C108535C00F0070C54
:102E20000BFA0CFC23EA0C030130535480B2F1E797
:102E3000C10812F801C000F007030BFA03F343EADC
:102E40000C030130535480B2D9E74FEAD00C02EBA7
:102E5000D00810F007000BD1E20839464046019235
:102E60002AF074FC14F00704019ACAD0904412E0CE
:102E70000BFA00F312F80CE0DBB2591E5B420EEACB
:102E800001013B4008381943044402F80C10E208E1
:102E900008F10108E1D10BFA04F498F80030E4B22B
:102EA0006242013C13403C40234388F80030A8E7CD
:102EB000012688E7042686E73C0E00205D260020D8
:102EC000CA25002037B5114D2B68EBB900F044F945
:102ED000044610B1012003B030BD00F031F9286084
:102EE0000028F7D002884188094B20461A801A81B1
:102EF0004A43598059819C80DC802146CDE90042BB
:102F000023462246FFF742FF0020E4E73C0E002064
:102F1000CA2500202DE9F843002301251A461A4F3F
:102F2000DFF86C803C68DFF86490D8F80000D618B1
:102F300041888E4207D3FBB91022002112482AF0A3
:102F400005FC002012E0E10708D50133D118C906BD
:102F50000ABF57F8254064080135E6E753B109EB8D
:102F6000021100F0B1F8034610B10720BDE8F88364
:102F7000721CEBE70132E9E7044901EB021100F0B2
:102F8000A3F80028D8D0F0E72C0E00205D26002002
:102F90003C0E002030B5054687B000B300226FF02C
:102FA0007F43C0E9012301A8FFF7C2FE044698B998
:102FB000019BCDE902001A882B605B88013A013B36
:102FC000284602A9049205931FF02FFE044618B963
:102FD000284604491FF062FF204607B030BD052493
:102FE000FAE700BFA8EB03000122014B1A6170470A
:102FF00000F0035013B5044605F0FCFD0023012248
:10300000217BCDE900324900B0FBF1F1024A0348CF
:1030100021F090FB02B010BDE92F0100540E0020FA
:10302000F7B508260E4C054604F580531E67407B15
:1030300005F0DCFF04230B4F02220DF10601384698
:10304000ADF806301FF06CFF38461FF07AFFA87B02
:1030500005F0CCFF002004F50054266703B0F0BD56
:1030600000C003502031002070B50646124820F001
:10307000E1FFB1680022114800F07EF8002304222D
:103080000321022002F062F8002335460C4C042292
:103090001946184602F05AF80FCD0FC401222B68CA
:1030A00030462360074B1A70FFF7A4FF3046FFF746
:1030B000B7FF002070BD00BF60F403002031002086
:1030C000400E00205D2E0020F7B5144608221D4654
:1030D000184B07461A67407B0E4605F087FF012212
:1030E00015480DF10201ADF8022025441FF018FF2C
:1030F0002246114C9542019208D8B87B05F076FF24
:10310000082200200D4B1A6703B0F0BD012201A96F
:1031100020461FF005FF3146102220461FF000FF19
:103120000122204601A91FF0FBFE019A1036013250
:10313000E0E700BF00D003502031002000E0035042
:10314000034B04481B78002B08BF0020704700BFCA
:103150005D2E0020400E002030B5064D87B001AC3A
:103160000FCD0FC42B6801A82360FFF77DFF07B0C8
:1031700030BD00BFD8EE03002DE9F04F04462D4EC0
:1031800089B001AD894690460FCE0FC596E807007D
:10319000D4F800B0284B85E807009B4545D003F5DF
:1031A00080439B4543D0254DAB450CBF02254FF0D6
:1031B000FF35DFF890A022480AEB4517D7F8AC6539
:1031C00020F038FF606820F035FF617B207B002312
:1031D000042201F0BBFF0422617A207A002301F06F
:1031E000B5FF0123584601A98DF81230CDF80C9097
:1031F000ADF8148020F09DF80020627A237A2E35F5
:1032000043EA02430AEB451ACAF80430627B237B87
:1032100006F0040643EA024346F01806C7F8C03534
:10322000C7F8AC6509B0BDE8F08F0025C1E70125FE
:10323000BFE700BFECEE0300008005500000065021
:1032400060F4030000C0035008B521F013FBFFF742
:1032500099FAFFF75BFC032000F03EFB60B10A4CDB
:103260000A49206820F0B5FF1FF014FF1FF013FF7C
:103270000749206820F0ADFF21F009FB1FF06CFC2E
:1032800005F042F8F8E700BF280F0020E8E6030049
:1032900008EF030030B503687C4A23F47F4323F032
:1032A0000703934289B040F0EE80082200211220EB
:1032B000774B0FF0E5FF044610B3764D764928684A
:1032C00020F087FF7549286820F083FF1FF0E2FE99
:1032D0001FF0E1FE724B734A009373495C23286828
:1032E00020F077FF71492346714A286820F071FF6A
:1032F000204600F037FB6F49286820F06AFFFEE7A0
:103300000146032214206C4B0FF0BAFF044610B3A1
:10331000604D6149286820F05CFF6049286820F012
:1033200058FF1FF0B7FE1FF0B6FE5D4B5D4A0093DD
:103330005D496A23286820F04CFF5C4923465C4ABB
:10334000286820F046FF204600F00CFB5949286809
:1033500020F03FFFFEE7014605221620574B0FF0F5
:103360008FFF054610B34B4C4B49206820F031FFCE
:103370004A49206820F02DFF1FF08CFE1FF08BFEC5
:10338000474B484A009348497823206820F021FFA2
:1033900046492B46464A206820F01BFF284600F08D
:1033A000E1FA4449206820F014FFFEE70DF10F0117
:1033B00004A80FF093FF044610B3364D3649286831
:1033C00020F007FF3549286820F003FF1FF062FE58
:1033D0001FF061FE324B334A009333498323286840
:1033E00020F0F7FE31492346314A286820F0F1FEEB
:1033F000204600F0B7FA2F49286820F0EAFEFEE7E1
:10340000BDF8143001465BBAADF818309DF81330A2
:1034100008228DF81A30FF238DF81B30FE238DF81B
:103420001C309DF8123018208DF81D30BDF810307A
:103430005BBAADF81E3006AB0FF022FF054610B3A5
:10344000144C1549206820F0C4FE1449206820F06F
:10345000C0FE1FF01FFE1FF01EFE114B114A00930D
:1034600011499323206820F0B4FE10492B46104ADE
:10347000206820F0AEFE284600F074FA0D4920685E
:1034800020F0A7FEFEE709B030BD00BFA00001009C
:103490000EEF0300280F0020F7E6030026E70300E5
:1034A00049EF030017EF030034E7030043E703008D
:1034B00040E7030058E703003FEF030043EF03003A
:1034C00007B501A801F0BEFF9DF80530012B27D1FB
:1034D000214A936DDB0313D4536B23F4FF0323F4CE
:1034E000FE4343F4BC1343F4A0635363136B23F410
:1034F000704343F440431363136B43F4E06313637B
:103500009DF8043063B94FF000531B68134B1B68E0
:10351000134B1B68134B1B68134B1B68134B1B6827
:10352000134AD2F8803043F00303C2F8803003F02E
:10353000FFFD00F069FB20F0FFFD20F06FFD04F0BF
:10354000D3F800F057FB00F09BFC00F0A1FF03B0A4
:103550005DF804EB04F0FCBD00C00050004000200A
:103560000080002000C00020000001200040012059
:103570000080005030B5204D95B00DAC0FCD0FC47C
:1035800095E80700032384E8070001248DF84D30F7
:103590001A4A1B4B0021CDE903231A4B0E220DF1D1
:1035A0002600CDE905342AF0D1F84FF48021164BDE
:1035B0000DAACDE907130B238DF824300C238DF8C9
:1035C0002530124B07A90A9320230B93104B114867
:1035D000009303AB8DF8314003F0C8FF04469DF81B
:1035E00032304FF4E130002B0CBF032100211FF0DB
:1035F000A5FD204615B030BDA4F1030000800550A4
:103600002100050006000402248005505E2E0020E3
:10361000740E0020C40E0020831E012B10B512D89A
:10362000012922D8114B04221B6905210020C3F374
:10363000401301F08BFD0E4B1B681868A8B1BDE864
:103640001040436A18478B1E012B0CD801280CD858
:10365000BDE810400022054B05211B691046C3F34D
:10366000401301F073BD0129E5D910BD00C003501E
:103670003031002008B50449044804F023FEBDE8B9
:103680000840FFF777BF00BF34310020E80E00206C
:10369000014820F035BF00BFC40E0020014B1A6A5C
:1036A00018681047C40E0020184B37B583422AD142
:1036B000174B1B783BB3C8B20FF0D0FD054610B3D3
:1036C000144C1549206820F084FD1449206820F02E
:1036D00080FD1FF0DFFC1FF0DEFC114B114A009350
:1036E00011498523206820F074FD10492B46104AAB
:1036F000206820F06EFD284600F034F90D4920685E
:1037000020F067FDFEE703B030BD00BFF00E0020E3
:103710007E2E0020280F0020F7E6030026E7030096
:103720002EF20300C0F1030034E7030043E7030077
:1037300040E7030058E7030030B500250368584A06
:1037400023F47F4323F0070385B093420446029598
:10375000ADF80C507ED002F5802293420ED0A2F13B
:103760008272934240F09A804E4B1B78002B00F0FF
:10377000958005B0BDE8304021F094B8B0F8053030
:103780001B2B40F08B80FF2304A91A4611E903008C
:103790001FF079FC012814BF41F2FC15414B05F0E4
:1037A000FC0208BF18701B2120790FF07FFD054631
:1037B00010B33D4C3D49206820F00BFD3C4920688A
:1037C00020F007FD1FF066FC1FF065FC394B3A4AFC
:1037D00000933A495923206820F0FBFC38492B46D6
:1037E000384A206820F0F5FC284600F0BBF836493E
:1037F000206820F0EEFCFEE7344900902379344A3B
:103800000968344800F00AF90546002846D0264CDD
:103810002649206820F0DDFC2549206820F0D9FCED
:103820001FF038FC1FF037FC224B234A009323493A
:103830006223206820F0CDFC21492B46214A2068D4
:1038400020F0C7FC284600F08DF81F49206820F0C2
:10385000C0FCFEE7B0F80530B7EE047A07EE903A08
:10386000F8EE677AB0F8073067EE877A013307EE33
:10387000103AB8EEC77A67EE877AB1EE047A67EE4F
:10388000877AFAFE677AFCEEE77A17EE903AB3F59C
:103890007A7F38BF4FF47A730C4A136005B030BD9D
:1038A000A00006027E2E0020280F0020F7E603006D
:1038B00026E703003DF20300C0F1030034E70300F4
:1038C00043E7030040E7030058E703003C310020D2
:1038D000A9360100F00E00200B4B02461B7883B185
:1038E0000A4B1B78834234BF00200120084B1B7811
:1038F00033B1084B1B78134113F0010F08BF0020B0
:1039000070470120F2E700BF4D3300204C33002008
:103910007F2E00204B330020012208B5074B1A7080
:103920000022074B1A700422064B1A701F22064B06
:103930001A7003F07BFC054B186008BD4D33002066
:103940007F2E00204C3300204B330020280F002016
:10395000024B0349186820F03CBC00BF280F002030
:103960005DF2030070B50C4C0C490646206820F04F
:1039700030FC03F05BFC0546206803F04BFC30464E
:10398000FFF7E6FF284603F045FC20680449BDE840
:10399000704020F01EBC00BF280F00205FF2030023
:1039A00061F2030038B505461FF0F3FB00230B4A14
:1039B00014685CB1AC4206D1A96A6BB199621FF080
:1039C000EEFB012007E02346A46AF2E7002DF3D0C6
:1039D0001FF0E5FB204638BD1160F0E72C0F0020FA
:1039E00010B50446B0B105F057F82046FFF7DAFFEE
:1039F00010B194F82C300BB9002010BD064C236890
:103A0000002BF9D01FF0C5FB2368013B23601FF09A
:103A1000C6FBF1E72220F0E7300F00202DE9F0434C
:103A200085B00546914698460E469DF8307009B916
:103A3000002F5CD12846FFF7D3FF0446002836D17B
:103A400085F82C00686305F035F9864233D905F016
:103A5000D1F82146844640F2E7304FF47A720023D1
:103A6000E6FB0C011DF0B0FB4FF0FF3200231DF010
:103A7000ABFB2B46E88611462846CDE900441D4A9B
:103A800020F098FE044690B9C5E9089885F82D7095
:103A90002E631FF07EFB184A136833B31A469B6AE5
:103AA000002BFBD195620023AB621FF078FB204610
:103AB00005B0BDE8F08347B12B4631462846CDE935
:103AC00000440C4A05F0BAF8DCE7304603A905F0DB
:103AD00097F804460028EAD12B462846CDE900771E
:103AE000044A039920F042FECCE71560DBE721246D
:103AF000DDE700BFFD3A01002C0F002091F82C30CB
:103B000013B50C4683B98B8ECA8E93420ED243B93D
:103B1000CDE9003320460B46124A4FF0FF3120F02A
:103B200009FEA38E0133A38602B010BD52B191F8F5
:103B30002D3093B101230093D1E908232046096B6E
:103B4000FFF76CFF012384F82C30074B1A68013211
:103B50001EBF1A6801321A60E6E7084604F09CFFAF
:103B6000F0E700BFFD3A0100300F00202DE9F041E1
:103B7000154E336833B34FF00008144F1FF009FBA4
:103B800005463C6824B92846BDE8F0411FF007BB54
:103B900094F82C30A3B1336884F82C8013B13368C7
:103BA000013B336094F82D3013B92046FFF7FAFE3D
:103BB00028461FF0F4FAD4E9083120469847DDE79B
:103BC000A46ADFE7BDE8F081300F00202C0F002051
:103BD000034B1B68002B14BF04200120704700BF5B
:103BE000300F0020024B1868B0FA80F0400970478F
:103BF000300F002008B5034820F01CFABDE808404B
:103C00001FF0CCB960F40300014820F013BA00BFE4
:103C100060F4030007B508201FF0CBFA02238DF8EB
:103C20000030054B684601931FF04CFA082003B0A2
:103C30005DF804EB1FF0C8BA006A18100348044A84
:103C40000449121A92101FF089BA00BF34210100F2
:103C5000D4220100802F002008B500F02FF8FFF7D4
:103C6000EDFF124B12498B4212D30020114B124927
:103C70008B4218D3FEF718FC186850F82240586899
:103C800040F82240013298688242F5D30C33EAE7CB
:103C90000022F8E71C6844F8220001325C68A24266
:103CA000F8D30833E4E70022F8E700BF4422040019
:103CB000502204005022040050220400124B134AE8
:103CC00070B59A60D3F88820114D42F47002C3F8A1
:103CD00088206FF0010205F50054226641F2FF7260
:103CE00062660222C3F8D020BFF34F8FBFF36F8FFD
:103CF0004FF44036032003F06BFA0320E66003F034
:103D000059FA2E6170BD00BF00ED00E000200100F7
:103D100000800044014B1868704700BF4431002008
:103D2000014B1860704700BF44310020084B1B6FE7
:103D300003F00703022B04D0032B05D0012B05D081
:103D4000FEE7044B18687047034BFBE703487047D6
:103D500000800050443100204C310020002D310102
:103D600008B5FFF7E3FF054B1B6FC3F301330133C6
:103D7000B0FBF3F0024B186008BD00BF008000509C
:103D8000403100200048704700B4C404014B18685B
:103D9000704700BF4C310020054B1860054B1B6F6E
:103DA00003F00703032B01D1FFF7DABF704700BF11
:103DB0004C3100200080005000487047002D310138
:103DC000174B9868C0F304400C280AD8DFE800F0CD
:103DD0000B0909090909072119091B1D1F001148B1
:103DE0007047002070479B6803F04073B3F1807FF9
:103DF00011D0B3F1007F10D00B4A002B08BF104642
:103E000070470A4870470A4870470A4870470A488E
:103E100070470A4870470A4870470A48704700BF11
:103E20000040015A405DC60000093D00C0EA210182
:103E300080BA8C010048E801005A62020024F400B4
:103E400080841E0040420F00014B1868704700BF7D
:103E50004831002000239B6AB3F5903F03D21968D4
:103E6000064A914203D00023037083607047012209
:103E700002709A689B694260F7E700BF07B0CD5EA9
:103E800000239B6A10B5B3F5903F11D219680A4A16
:103E900091420DD1094C227812F0FD0F01D0002083
:103EA00010BDDB6998470028FAD101232370F6E79B
:103EB0004FF48170F4E700BF07B0CD5E802E002084
:103EC0004FF00053014A1A6003F050B902020FF09C
:103ED000034B5868C0F30800003818BF0120704732
:103EE00000ED00E013B500242948019420F0A2F869
:103EF000012304220321204601F028F920461FF067
:103F0000F1F90122234B0520C3F8442401A920F034
:103F100087F8002839D1204BD3F8F02042F0010275
:103F2000C3F8F020D3F8FC2042F08072C3F8FC20E4
:103F30001A4AA3F55D431A60019B194A03F5D5237C
:103F400003F2FC43B3FBF2F3164A013B1361022375
:103F5000C2F8F0304FF48073C2F804334FF060437E
:103F6000114AC3F8B02F114AC3F8802ED3F8002E9F
:103F700042F48072C3F8002EFF2283F82020D3F889
:103F8000002E22F48072C3F8002E02B010BD00BFD4
:103F900060F4030000D0035000ED00E0FF03004098
:103FA000F8590D00000004E055CEACC50900010031
:103FB0004FF06043D3F8802E30B5D20715D50124D9
:103FC0000B4D8440D5F8FC2042F08072C5F8FC20EF
:103FD000D3F8002E2243C3F8002E53F82020002AE5
:103FE000F0D003F82010002030BD1120FCE700BF06
:103FF00000ED00E02DE9F04F9A46564B85B01B7856
:1040000006460F461546DDF83C909DF844B0DDF8B5
:104010005080002B00F09780072A00F296800E9BBC
:10402000002B00F09280B9F1000F00F08E80129BFF
:10403000B3F5006F00F38980012803D1109B002B9A
:1040400000F08380444B03EB05131B7B002B7ED0D9
:10405000424C10220021684629F078FB04EB4514FD
:104060001022A7BB3946204629F070FB43F210030B
:104070006380BBF1000F03D1E37843F00303E370E7
:10408000364A0E9B02EB451CCCE90193129B690159
:10409000581E9DF84C30C0F30A0003F003039B0642
:1040A00043EA001E53582E48012E00EA03004EEA50
:1040B0000003CDF800A0535017D0B8F1000F2ED157
:1040C0009CF8023068F304138CF8023027E00021DA
:1040D000204629F03BFB4FF444736380BBF1000F93
:1040E000CED1E37843F03003C9E713230CF1100E6F
:1040F000CCF80C309CE80F008EE80F006FF0030145
:10410000DCF81C20109B61F39F02012FCCF81C20CF
:10411000CCF8143003D1CCF81890CCF80430002738
:104120000D4A290102EB051342F80180159A284631
:104130005A60694622469F605E7301F08BF83846EC
:1041400005B0BDE8F08F0748FAE70748F8E70748E9
:10415000F6E700BF812E002034100020340F00202D
:104160000F80FFF3028000F0018000F0078000F074
:1041700038B5124B05461B78DBB1E0B11FF009F8EA
:104180000F4A00231146147B54B92B6001251A01F4
:1041900001EB03131D738C501FF001F8204638BD4E
:1041A0000133082B02F11002EDD11EF0F8FF054893
:1041B000F5E70548F3E70548F1E700BF812E002049
:1041C00034100020048000F0028000F0018000F034
:1041D00038B51EF0DEFF002305460B4A147B6CB990
:1041E0000133082B02F11002F8D100F0EFFF074B6A
:1041F00028461C701EF0D3FF204603E028461EF020
:10420000CEFF034838BD00BF34100020812E0020AF
:10421000058000F00D4B10B51B78044693B10728BC
:1042200012D81EF0B6FF0A4B03EB04131A7B2AB117
:1042300000241C731EF0B3FF204610BD1EF0AFFF1C
:104240000448FAE70448F8E70448F6E7812E00201E
:1042500034100020068000F0028000F0018000F0A1
:10426000154B13B51868002301908DF804301EF02B
:1042700090FF124B1C7824B11EF091FF104802B041
:1042800010BD01221A701EF08AFF0E4B01A81C738C
:104290001C7783F82C4083F83C4083F84C4083F82B
:1042A0005C4083F86C4083F87C4008238DF807302D
:1042B00000F0A8FF2046E2E7B4F20300812E0020C0
:1042C000038000F0341000200A4A08B512785AB171
:1042D00007280BD8084A02EB00131B7B43B10021CF
:1042E00000F082FF002008BD0448FCE70448FAE71C
:1042F0000448F8E7812E002034100020028000F0EE
:10430000018000F0078000F00A4A08B512785AB11F
:1043100007280BD8084A02EB00131B7B43B101218D
:1043200000F062FF002008BD0448FCE70448FAE7FB
:104330000448F8E7812E002034100020028000F0AD
:10434000018000F0078000F00A4A08B5127852B1E7
:1043500007280AD8084A02EB00131B7B3BB100F088
:10436000C5FF002008BD0548FCE70548FAE70548F9
:10437000F8E700BF812E002034100020028000F0FA
:10438000018000F0078000F00D4B1B7893B10728E7
:1043900012D889B10B4B03EB00131B7B73B10A4B93
:1043A0001A6D01238340134214BF01230023002010
:1043B0000B707047054870470548704705487047BF
:1043C000812E00203410002000000450028000F0F4
:1043D000018000F0078000F00B4A10B512780C46FF
:1043E00062B107280CD859B1084A02EB00131B7BB5
:1043F00043B100F08DFF2070002010BD0448FCE7A1
:104400000448FAE70448F8E7812E00203410002021
:10441000028000F0018000F0078000F0184B2DE9C9
:10442000F0411F6D5B6D1F4000D5FEE701260025A2
:10443000144CDFF85880374218D02368C8F8506011
:10444000A3B1A168284601316268A1609847637BE7
:10445000012B0BD150B90C4B03EB45131A7B60F3C6
:1044600041021A731A7F60F341021A770135082D51
:104470004FEA460604F11004DDD1BDE8F08100BF2B
:104480000000045034100020340F0020002004509D
:10449000024B1968024B186815F04ABD50310020D4
:1044A0007031002070B59400224605460E462AF071
:1044B00017F9431C0AD058B922463146284629F03C
:1044C0001BF90028034808BF002070BD0248FCE724
:1044D0000248FAE710E000F021E000F024E000F0EC
:1044E00010B504462AF0F8F8431C10D088B900F043
:1044F000D1FF234620F003002044984201D1002040
:1045000010BD53F8042B0132F7D00348F8E70348F5
:10451000F6E70348F4E700BF0EE000F021E000F00A
:1045200024E000F008B51EF02DFE014B186008BD18
:10453000A4170020014B18681EF028BEA417002005
:1045400041F67133124A30B5D469124DD363936882
:10455000A84204F4803423F4401306D893600E4A32
:10456000D2F8183223F002030AE043F48013936078
:104570000A4B9842F3D9084AD2F8183243F00203A2
:10458000C2F8183214B10022014BDA6330BD00BF0B
:1045900000000350005A620200C0075080F0FA0287
:1045A0002E4B98424AD022D82D4B984240D014D856
:1045B0002C4B984239D00AD82B4B984232D02B4BF7
:1045C00098422FD02A4B98422CD000207047294B7C
:1045D0009842FAD1284B186F7047284B98422AD03E
:1045E000274B9842F1D1244BD3F880007047254BDC
:1045F00098422BD009D8244B984223D0234B984281
:10460000E3D11D4BD3F88C007047214B984221D049
:1046100003F5740303F510539842D6D1164BD3F823
:1046200098007047144B986D7047134B586E704745
:10463000114B586F7047104B986F70470E4BD3F863
:10464000840070470C4BD3F8880070470A4BD3F8AE
:1046500090007047084BD3F8940070470048E80179
:104660000024F400C0CF6A0080841E0000093D00D1
:1046700040420F00405DC6000080E00FC0EA21010B
:1046800080BA8C01007E560380D54302006CDC02A8
:104690000090D00338B5134B0546D3F820010C46E3
:1046A00000F0070004281AD8DFE800F003090D1114
:1046B0001500012305B1286004B1236038BDFFF760
:1046C00029FB0423F6E7FFF761FB0323F2E7FFF77B
:1046D00077FB0523EEE7FFF76FFB0223EAE70023F2
:1046E0001846E7E70080005037B50C460021114B13
:1046F0000191D3F88031054603F00303022B0ED05D
:10470000032B11D0012B03D101A8FFF7C3FF0D210B
:104710000DB1019B2B6004B1216003B030BDFFF7E8
:104720004FFB05210190F3E7FFF746FB02210190C3
:10473000EEE700BF0080005038B5104B0546D3F8B7
:1047400040310C4603F00303022B0BD0032B0DD09A
:10475000012B0FD11EF010FD082305B1286004B114
:10476000236038BDFFF770FB0723F6E71EF007FD57
:104770000923F2E701230020EFE700BF008000508B
:1047800038B5104B0546D3F860310C4603F00303EF
:10479000022B0BD0032B0DD0012B0FD11EF0ECFC04
:1047A000082305B1286004B1236038BDFFF74CFB36
:1047B0000723F6E71EF0E3FC0923F2E701230020BC
:1047C000EFE700BF0080005038B5144B0546D3F822
:1047D00000020C4600F0070004281BD8DFE800F0B8
:1047E00003090D111500012305B1286004B12360F0
:1047F00038BD1EF0C1FC0823F6E7FFF725FB0723B1
:10480000F2E71EF0BCFC0923EEE7FFF7A9FA0C2340
:10481000800AE9E700231846E6E700BF0080005061
:1048200038B5144B0546D3F808020C4600F00700D3
:1048300004281BD8DFE800F003090D11150001233F
:1048400005B1286004B1236038BD1EF095FC082333
:10485000F6E7FFF7F9FA0723F2E71EF090FC0923C9
:10486000EEE7FFF77DFA0C23800AE9E700231846FC
:10487000E6E700BF0080005038B5104B0546D3F87E
:1048800040320C4603F00303022B0BD0032B0DD058
:10489000012B0FD11EF070FC082305B1286004B174
:1048A000236038BDFFF7D0FA0723F6E71EF067FC58
:1048B0000923F2E700231846EFE700BF008000500D
:1048C00038B5104B0546D3F800310C4603F003030E
:1048D000022B0BD0032B0DD0012B0FD1FFF756FA73
:1048E000032305B1286004B1236038BDFFF7ACFA9B
:1048F0000723F6E71EF03EFC0623F2E70123002023
:10490000EFE700BF0080005038B50C4605461EF0AA
:1049100039FC054B9A6A54402C4054409C62BDE8D7
:1049200038401EF033BC00BF00C00050032814D034
:1049300005D8012805D0022809D0002005E00F285D
:10494000FBD1084B186FC0F3013001307047054BA5
:10495000D3F89000C0F30460F7E7024B186FC0F380
:104960008020F2E7008000501FB500230193252826
:1049700017D8DFE800F0131A1D272C363B51565B81
:1049800060656A78161A401616561A272C27361AAA
:104990005127783B3B3B3B2727275B60FFF7C6F956
:1049A0000190019805B05DF804FBFFF7D9F9F7E72E
:1049B000FFF7BCF902460220FFF7B8FFB2FBF0F2A6
:1049C0000192EEE7FFF7CCF902460320F4E7FFF788
:1049D000C7F902460320FFF7A9FFB2FBF0F2520825
:1049E000EEE7002101A8FFF77FFEDAE7002101A82A
:1049F000FFF750FED5E702934FF0E0231B695B07FA
:104A000005D5FFF7ADF90290029B0193C9E703A911
:104A100002A8FFF791FEF7E7002101A8FFF78CFE3F
:104A2000BFE7002101A8FFF7ABFEBAE7002101A80C
:104A3000FFF7CAFEB5E7002101A8FFF7F1FEB0E7D6
:104A4000002101A8FFF73CFFABE7094BD3F880300A
:104A500003F00303022BA8D0032B01D000209FE713
:104A6000FFF7AEF99CE7002101A8FFF705FF98E7E3
:104A70000080005008B50120FFF776FFBDE8084030
:104A80000349884294BF01210221032000F002B8AB
:104A900080F0FA02032810B50C4627D004D801286C
:104AA00004D0022817D010BD0F28FCD11EF0E7FB60
:104AB0001EF0EDFB124A013C136F23F4405343EA0E
:104AC00004331367FFF74CF90021FFF739FDBDE808
:104AD0001040FFF7CFBF0A4A4C1ED2F8903023F0A7
:104AE000F85343EA0463C2F89030DCE7044A4C1EF2
:104AF000136F23F4806343EA84231367D3E700BF73
:104B0000008000501FB500230193252821D8DFE83D
:104B100000F013202020202A2F454A4F54595E715F
:104B200020203420204A202020202A204520712FB8
:104B30002F2F2F2020204F54314B1B6F03F00703E2
:104B4000013B032B05D8DFE803F00C02080A04231D
:104B50000193019805B05DF804FB0323F8E70623F1
:104B6000F6E70223F4E7002001A9FFF7BDFDF0E717
:104B7000002001A9FFF78EFDEBE702934FF0E02341
:104B80001B695B0705D5FFF7EBF80B230393039B2A
:104B9000DEE703A902A8FFF7CFFDF8E7002001A98F
:104BA000FFF7CAFDD5E7002001A9FFF7E9FDD0E72F
:104BB000002001A9FFF708FECBE7002001A9FFF7BD
:104BC0002FFEC6E7002001A9FFF77AFEC1E70C4BD4
:104BD000D3F8803003F00303022B03D0032B05D05E
:104BE0000023B5E7FFF7BCF80B23B1E7FFF7E8F8C0
:104BF0000523ADE7002001A9FFF73EFEA9E700BFAE
:104C000000800050024A536A23F001035362704748
:104C100000C0075008B5FFF775FF07280ABF024B11
:104C20004FF6FF70188808BD3833002008B5FFF72D
:104C300069FF03280ABF024B4FF6FF70188808BDB2
:104C40003633002038B50546FFF7AAFC204B044652
:104C50005A68012A04D11F494A609A699207FCD117
:104C60000020FFF74FFF042803D11EF008FB1EF0C1
:104C70000EFB194A24F0407395421FD0174A954203
:104C80001FD0174AD16811F0060FFBD190689360CE
:104C900091684B4013F4F81F16D12846FFF740F8EF
:104CA0000020FFF72FFF042810D1FFF759F800214B
:104CB000FFF746FCBDE83840FFF7DCBE43F0007369
:104CC000DFE743F08073DCE79060E9E738BD00BFC1
:104CD00000C0015000E0015040420F0080841E00DF
:104CE00000000150F8B504460020FFF70BFF032831
:104CF00000F0818045F60E0302213F4AC2F8803061
:104D00003E4B9962012103F580539962936DD9035B
:104D1000FCD4D4E900131B0543EA0163E17B94F85A
:104D200020500B43217BE77E43EA0143617B6D0109
:104D300043EA0133A17B43EA811313619169D4E90A
:104D400004031B0643EA806301F000410B43A17E8C
:104D500094F823000B43217E43EA0143617E43EA3A
:104D600001239361136AE66923F00D0394F822107E
:104D700043EA870366BB1362966A94F8213045EADA
:104D8000031326F033052B4343F0010393621C4DBC
:104D9000194A936D35EA0303FBD10225174B9D6237
:104DA000936D5B00FCD41369A56823F4700343EA98
:104DB000055313614FF00042104B9A6119B902225A
:104DC00003F580539A6278B901220E4B9A620BE088
:104DD000334343F008031362936A23F0330303431E
:104DE0002B4343EA4103936294F824301BB1024BF6
:104DF000054AC3F88020F8BD00C0005000D0005024
:104E00000300014000E00050F1A7FFFF70B5184C0F
:104E1000FF28A66A2AD8A36D13F4803F18BF012289
:104E2000144B18BF9A6202229A62A56D15F0804554
:104E3000FBD1114AA36992F9002023F47F030244B5
:104E400023F47F4382F3080243EA002343EA024348
:104E5000A36131460220FFF757FDA36DDB0303D5A5
:104E600031460120FFF750FD284670BD2125FBE7A4
:104E700000C0005000D00050822E0020014B93F95A
:104E800000007047822E002001231248124A816AD6
:104E90009362836D03F00303032BFAD10223936221
:104EA0000C4A936D5800FCD40C48936D30EA030310
:104EB000FBD10122084B1A65A3F580539A6D920726
:104EC000FCD49A6D9007FCD59A6D9207FCD503200F
:104ED000FFF71ABD00C0005000D0005003000100D1
:104EE000F0B5D0E901434FF4D1560227164A417874
:104EF00005785662154E4F2977604FF0010728BF9D
:104F00004F2106F5805677601669F603FCD441EA16
:104F1000052151611B01417B43EA04230B43017BC3
:104F200043EA41039360C37B817B1B0143EA411346
:104F3000417C0B43017C43EA41035360837C13B102
:104F40006FF4D1535362F0BD0000025000100250C4
:104F5000014B1880704700BF38330020014B188088
:104F6000704700BF36330020284B984242D01AD8F1
:104F7000A3F5B703A3F55863984237D00CD8244B58
:104F8000984225D0234B98422AD0234B984217D0E1
:104F90000023224A93607047214B9842F8D1214B5D
:104FA000D3F8BC301FE0204B984227D01F4B9842CB
:104FB00028D01F4B9842EBD11A4BD3F8C83012E0DF
:104FC000184BD3F8A03023F0407343F00073E0E7B0
:104FD000144BD3F8A03023F0407343F08073D8E72C
:104FE000104BD3F8A03023F04073D2E70D4BD3F829
:104FF000B830F8E70B4BD3F8C030F4E7094BD3F8DF
:10500000CC30F0E7074BD3F8D030ECE7C0EA210111
:1050100080841E0000093D0040420F000040015AFC
:105020000024F4000080E00F0048E801005A62020A
:1050300080BA8C010C4A10B51369044643F004038E
:10504000136103F00DFB1EF03AF9084B084AC3F850
:10505000202430BF1EF034F903F024FB1CB9BDE856
:105060001040FEF77DBE10BD00ED00E000E00350F3
:105070000000FFFF0A4A10B51369044643F0040319
:105080001361084B084AC3F8202403F0E9FA30BF43
:1050900003F008FB1CB9BDE81040FEF761BE10BD6F
:1050A00000ED00E000E003500000FFFF034A01793B
:1050B000D36E23F030030B43D3667047004000509B
:1050C000072A2DE9F0410D46144698460FD80326CD
:1050D0009700BE4000FA07F2314615481EF0F3F87B
:1050E00005F0030231461348BA401EF0ECF8124BAB
:1050F00012499DF81800B8F1000F18BF1946012396
:1051000003FA04F40C600E4B0E49002818BF0B463E
:105110001C600D4B9DF81C00C3F82044103103F2B5
:105120002443002818BF0B461C60BDE8F08100BF77
:1051300000C4035008C4035010D4035010E40350BB
:1051400014E4035014D4035000E00350F8B50446AF
:105150000D461F4616464AB101238B403021184A9E
:1051600001FB0022F7B141F21001535004EB44035C
:10517000072D4FF00F014FEA031316D8A80006FAC7
:1051800000F281400F4818441EF09DF84EB90123EB
:1051900030210B4AAB4001FB042277B141F21001F0
:1051A0005350F8BD42F21001DFE7A5F1080080007E
:1051B00006FA00F281400448E5E742F21001EFE709
:1051C00000C0035004C003500CC0035008B51520A4
:1051D00001F0DEFF0022FF21024B5A6599625A60FE
:1051E00008BD00BF00000450044A054B002908BF59
:1051F0001346012282401A60704700BF40100450DD
:105200004020045010B50446417802780120104B2C
:10521000120658609A60A278152042EA01429A610B
:10522000FF229A6200229A631A644FF000425A6584
:105230004FF0FF3203F500531A6501F0C9FF152046
:10524000E17801F0D3FFBDE81040152001F0B2BFB6
:1052500000000450F8B50125C3B2DFF88CC0D1F8C6
:1052600000E09D408F7ACB7A0C46097BCCF85050F9
:105270000CF5005C4CF820E04FF0300E184E1B058A
:105280000EFB006094F80DC043EA074343EA415324
:1052900022F00302C0F860C0C36502671DF079FF09
:1052A000104B5D65237A13B1336C2B433364637AFF
:1052B00013B1B36B2B43B3632279A37943EA02435F
:1052C000094A93616179E37943EA014305498B61B6
:1052D000034B55639D64BDE8F8401DF060BF00BFFF
:1052E00000000450001004500020045010B50124A8
:1052F000C0B284401DF04DFF044B5A6D22EA0402F7
:105300005A659C62BDE810401DF049BF0000045082
:1053100010B50124C0B284401DF03BFF074BDA6A90
:10532000224208D15B6B9C430CBF012400241DF07A
:1053300036FF204610BD0024F9E700BF00000450EE
:1053400041F67132034BDA63012203F50053DA6050
:10535000704700BF0000035041F671320121044B39
:10536000DA6303F50052D1600022DA63704700BFB0
:1053700000000350CB784A7810B55B010C7843EA03
:1053800082030A79234343EA02130C22424302F1C7
:10539000B0421363012C02BF8A78024B43F82020ED
:1053A00010BD00BFD080035008B54FF0B0435A681D
:1053B0006AB958B15B680BB11DF095FF01210D4B27
:1053C00059601DF090FF4FF0B043D96008BD5B6895
:1053D0000BB11DF088FF0028F0D11DF084FF4FF0C5
:1053E000B0430222DA601DF07EFF0122024B5A60B8
:1053F000ECE700BF00100058002000584FF0B0410B
:105400004B6810B50BB11DF06EFF01220B4BC47839
:105410005A608378934043EA8403447823430479B1
:1054200043EA0413447943EAC4038B60044B5A6093
:105430000378C3F10203CB6010BD00BF0020005809
:1054400000100058054B5B69C3F38512827003F0AE
:105450003F021B0B42700370704700BF00C0075033
:1054600040F6B732064B5B689BB293429FBF4FF446
:105470007A72B3FBF2F3034AD05C88BF0020704716
:105480000080E00FD9F20300014B986CD96C704793
:105490000080E00F0120034B9B680A3303F01F03D9
:1054A000984070470080E00F0D4B984208D1A3F55B
:1054B0000033C3F88411C36D43F08003C3657047A4
:1054C000084B984204D1A3F51033C3F89411F2E7C6
:1054D000054B984204BFA3F52033C3F8A411EAE7B3
:1054E0000080055000C005500000065070B505460C
:1054F00016461C4619B90320FFF736FA0146402C20
:105500001BD003D8DCB1202C1BD070BD602CFCD18B
:10551000042303FB06F2530803EB4113B3FBF2F33E
:10552000094A203B02EAC303AA6822F06002AA608B
:10553000AA681443AC60EB61E7E70623E9E71023B0
:10554000E7E70823E5E700BFF8FF7F00012200F549
:1055500080535A6040F6AA6341F20502436100237A
:105560000D498360C365C26000F500520361C361E9
:10557000C364916409498365884203D103650023AC
:10558000436506E006498842F8D001F5804188422B
:10559000F4D0012353607047FFFF010000800550E5
:1055A00000C0055070B50D46FFF7D0FF012300F590
:1055B00080567360AB7C04461BB1836843F0804324
:1055C0008360EB7C1BB12046297DFFF76DFF2A8AA3
:1055D0006B7B20461343EA891343E3602B7BD5E9B9
:1055E0000112FFF783FF6B7D1BB1A36843F4803387
:1055F000A360AB7D1BB1A36843F40043A360EB7DC4
:105600002A7E1B07120502F4E00203F0E043134375
:10561000A365697E1F4A8B1E012B1F4B1DD8944228
:1056200017D002F58042944215D002F58042944290
:105630000CBF02224FF0FF3203EB4213022041F273
:10564000AC520329985020D10423F3652B78636171
:1056500070BD0022F0E70122EEE7944211D00F4A1C
:10566000944210D002F5804294420CBF02224FF0C7
:10567000FF3203EB4213022042F2AC520129985050
:10568000E1E70022F5E70122F3E7042204F50053E5
:10569000DA65DBE70080055000C0035000C005500C
:1056A00038B50446054D27F06EFB0FCC0FC594E8C6
:1056B0000F0085E80F00002038BD00BFA8170020AC
:1056C00047F6FF739A42F0B572D0022972D83A4B6E
:1056D0005B5C022B6ED8394DDF0005EBC304A1786B
:1056E00015F83330012938BF0121012B13D10025D2
:1056F000E078401AA84202D80844C0B2F0BD431B6B
:105700006668A0EB530336F913609642D4BF1D467A
:1057100003F1FF30EEE760680028EFD0B0F90040F9
:10572000944204DBB0F902409442B8BF1446838827
:105730003D44FF2B19BFC8224FF0280CB0F90620BA
:10574000B0F908C0A2EB04030CBF0126002693FBAE
:10575000FCF333446E781BB29E4201DD002B01DA6C
:10576000731E1BB24FF47A7C01339BB2071D5D1E82
:105770002DB24FEAC50E00EBC505EA88AD689E4222
:1057800014FB025222EAE27202F15C02B2FBFCF26A
:1057900004DD37F8335001339542E8D200EB0E03B5
:1057A0009888904228BF1046884238BF0846A4E730
:1057B000FF20A3E70020A1E7DCF20300A8170020E8
:1057C0000229F0B560D8314B595C02295CD8304BC6
:1057D00013F83100012816D103EBC1039C78D87867
:1057E000012C214638BF0121904294BFC1EB00013A
:1057F000C1EB0201001BCAB28242C8BF00225B6833
:1058000033F91200F0BD002A3CD003EBC103596804
:10581000002939D09878904202D3B1F90200F1E71B
:10582000DC78B1F900009442ECD95C788B88013CBB
:10583000A3F1FF06734201F10405E4B2734101F1E3
:105840000C07DEB2B44216D805EBC3034FF47A75E9
:105850006A43B3F902405B68D21A04EBD47302EBDB
:10586000630292FBF4F29042CCDBB1F90200904269
:10587000C8DC10B2C6E737F833C05E1C9445E3D3EA
:105880003346DEE70348BDE70348BBE7DCF203002D
:10589000A81700200CFEFFFF0080FFFF08B504489A
:1058A000FFF7FEFEBDE80840012027F070BA00BFF8
:1058B000E0F20300004870473A3300207FB502222F
:1058C000084B0949CDE901234FF00073CDE90313DB
:1058D000052301A94FF0FF30059327F088FA07B0A0
:1058E0005DF804FB006A1800000204002DE9F04195
:1058F0008CB08846DDE912761D460446002847D064
:10590000002945D0002F43D0002E41D013F00F03C3
:105910003ED120482049A360002A08BF0146E36128
:10592000C4E90013404609A91DF05DFE68BB20468E
:1059300009991DF09CFF294620461DF098FF6946F5
:1059400040461DF0FEFE00BB694620461DF07BFF71
:10595000404603A91DF000FFB8B9204603A91DF079
:1059600072FF06970127204645F0005506A90797C4
:1059700008951DF068FF204609A909960A970B951E
:105980001DF06BFF20461DF05CFD0CB0BDE8F08102
:105990002120FAE700010004000101042DE9F04193
:1059A0008CB0884616461D460446129F00284BD0F0
:1059B000002949D0002A47D0002F45D00B68103B62
:1059C000102B41D8214A22FA03F3D9073CD50023F2
:1059D0001F4A8360C0E90023C36109A940461DF046
:1059E00002FE70BB204609991DF041FF2946204662
:1059F0001DF03DFF694640461DF0A3FE08BB694609
:105A000020461DF020FF404603A91DF0A5FEC0B9A9
:105A1000204603A91DF017FF06960126204606A979
:105A200045F00055079608951DF00DFF094B2046DF
:105A300009A909970A960B931DF00FFF20461DF048
:105A400000FD0CB0BDE8F0812120FAE70101010062
:105A50000000040410000020F0B50C4617461E4656
:105A6000054695B0002874D0002972D0002A70D065
:105A7000002B6ED0036B0F2B5BD80023364A3846C1
:105A8000C4E90023A360E36111A91DF0ACFD002867
:105A90005BD1204611991DF0EAFE296B20460F29A3
:105AA00084BF01F00F0110311DF0E1FE384602A95C
:105AB0001DF047FE002848D1204602A91DF0C3FE74
:105AC000384605A91DF048FE00283ED1204605A90C
:105AD0001DF0B9FE0122214B089509920A932B6B08
:105AE00005F1100003F00F0141F000510B900F2B56
:105AF0000C920D910E900F9243F00052109226D905
:105B00000A9B08A923F0005320460A931DF09BFE30
:105B10000BA920461DF097FE0123119612930F4BFF
:105B2000204611A913931DF098FE20461DF089FC14
:105B30000BE000F12003019000930122102339466D
:105B40002046FFF7D3FE002897D015B0F0BD0EA970
:105B5000DFE72120F9E700BF000004041000002067
:105B60002DE9F04F9BB00C4690461F460546DDF8E8
:105B70009090002800F0B280002900F0AF80002A49
:105B800000F0AC80002B00F0A980026B02EB09034F
:105B90001B09B3EB121F02F00F0600F097800023E1
:105BA0004F4A8B60C1E90023CB61404617A91DF025
:105BB0001AFD0346002840F0858006EB090B2046BD
:105BC00017992BF00F0A1DF052FE514620461DF08A
:105BD0004EFE404602A91DF0B4FD0346002871D1D7
:105BE000204602A91DF02FFE404605A91DF0B4FD78
:105BF0000346002866D14FF00108019005A9204610
:105C00001DF021FE374A204608A90895CDF82480CA
:105C10000A921DF018FE46F00051AAEB060605F1A7
:105C2000100346F000560B93CDF830800D910E977F
:105C3000CDF83C8010960D99204621F000510D9131
:105C40000BA900931DF0FFFD20460EA91DF0FBFDE2
:105C5000019B244A1193AAF1100343F00053CDF89D
:105C60004880139305F120031493CDF854801692C5
:105C7000139B204643F080431393139B11A923F0F9
:105C8000005313931DF0E9FD204614A91DF0E5FD16
:105C9000144A17A920461795CDF8608019921DF077
:105CA000DCFD20461DF0CDFBAAEB0B014944019021
:105CB000ABEB0A020098394427F066FD019B2A6B82
:105CC0004A442A6318461BB0BDE8F08F10304A469C
:105CD0003946304427F058FD0023F0E72123F1E74F
:105CE00003020004100000202DE9FF474FF00008D8
:105CF0000E4617460446CDF80080002859D022B938
:105D00000025284604B0BDE8F087002951D032F0C4
:105D1000030902F0030A1FD04FF0E063C0E9003826
:105D200001230191C0F808800293C0F81C8049F05B
:105D3000005301A903931DF090FD494620461DF034
:105D400096FD20461DF07DFB054628B14A4641469A
:105D5000304627F0FBFCD4E7BAF1000FD0D04FF06B
:105D600000084FF0E063C4E900380123CDF804D007
:105D70000293114B204601A9C4F80880C4F81C8086
:105D800003931DF06AFD042120461DF070FD20469E
:105D90001DF057FB054608B13A46D8E7009A4E4435
:105DA000EB00013522FA03F3AA4506F8013BF7D1CF
:105DB000A6E72125A5E700BF04000020F0B50F46A7
:105DC00016461D46044693B010B9212013B0F0BD0D
:105DD0000029FAD0002AF8D0002BF6D00023314653
:105DE0001A4638461DF0A4FB0028EFD1304602A920
:105DF0001DF049FB0028E9D138683449029A8842ED
:105E00006B695ED19342E0D32B68002BDDD14FF05C
:105E100060623846C4E90023A360E36101A91DF074
:105E2000E2FB0028D2D10199204621F4F0610191D2
:105E30001DF01DFD694628461DF0D5FB0028C5D183
:105E4000204600991DF013FD384609A91DF079FC84
:105E50000028BBD1204609A91DF0F5FC38460CA945
:105E60001DF07AFC0028B1D120460CA91DF0EBFCF6
:105E7000EB684BB1284606A91DF063FC0028A5D1AC
:105E8000204606A91DF0DFFC304603A91DF064FC86
:105E900000289BD1204603A91DF0D5FC28460FA958
:105EA0001DF05AFC002891D120460FA91DF0D5FC09
:105EB000032520461DF0C5FA012887D1013DF8D100
:105EC00084E7B3EB420F9FD27FE700BF200000B012
:105ED00070B50E46154604468AB000285CD00029ED
:105EE0005AD0002A58D0012329461A4630461DF0C0
:105EF0001FFB00284ED1B36813F4C04F4CD0AB68E1
:105F000003F4C043B3F5005F46D1254BA060C4E95C
:105F10000030E06107A930461DF065FB002839D14B
:105F2000204607991DF0A3FC012302934FF0005374
:105F3000204601A903931DF086FC304604A91DF0FC
:105F40000BFC38BB204604A91DF07DFCEB681BBB95
:105F5000AB6803F4C043B3F5005F1DD16946284622
:105F60001DF0B4FAB0B9009B6A699A4216D32A6947
:105F700043F0005307920122204607A90892032507
:105F800009931DF06AFC20461DF05BFA012801D13F
:105F9000013DF8D10AB070BD2120FBE71D20F9E7D3
:105FA000000001021FB5044698B191B100230A4ACE
:105FB0008360C0E90023C361012301910293074B71
:105FC00001A903931DF049FC20461DF03AFA04B0E4
:105FD00010BD2120FBE700BF0000084304000020A3
:105FE00006289ABF014B185C00207047CCF30300D1
:105FF00030B5154B87B00293144B0390049346F6CB
:1060000011030D46059300F077F91428044616D1C4
:1060100068461DF0E2FC4FF0A843032202A95A6330
:1060200019601D619A63DA6B9207FCD1142C02D1BE
:1060300068461DF0E0FC00F08FF9044601E00028FE
:10604000E9D0204607B030BDC8170020040000206A
:106050002DE9F04FB1B005468C469E46E8466F4E9E
:10606000DDF8EC90409C06F1100A474630687168F4
:10607000083603C75645B846F7D13E9B03EB0208E6
:10608000C8F1000A0AF00F0AB9F1000F00F09D8074
:10609000C9F1000707F00F070121DDF8FCB044F05B
:1060A0000050C4F11006CDF810B0059106903002F2
:1060B00000F4F85040F021000790B9F1000F40F0D3
:1060C0008680CDF820D047F00050002D00F084806D
:1060D000099121210A9041EA07210B9142F00050D9
:1060E000CDF830C03D9B08A94FEA0A2C0D910E90C7
:1060F0004CF041000F901093002A75D13E9B1191F6
:1061000043F0005312933C9B1390149310AB1593E0
:10611000434B444A169340F611031793424B002118
:10612000002D08BF1346189314AB19933F4B102250
:106130001A9311231B931CAB184627F007FB01226F
:106140001D92002246F0804603461E96239205B912
:10615000EB46102CCDF880B024AE4BD10123224663
:10616000002130462193229427F0F0FA20AB002141
:1061700025938F4218BF334647F0804226923A9AC1
:106180002CA828922993B2FA82F35B0949EA837317
:1061900010222B912A9327F0D9FAB9F1000F00D0E1
:1061A00028AED04448F080432CA918A82D962E93F1
:1061B000FFF71EFF30B92DB90346A34225D10028B1
:1061C00018BF2C2031B0BDE8F08F102764E7CDF860
:1061D00020E049F0005078E7002C3FF479AF04A9A3
:1061E000099101210A9076E73E9B0CAA1192412069
:1061F000129388E71022002130462193229427F041
:10620000A5FA002CB2D10123B1E703F1C0026A4420
:1062100012F8C02C01331043CFE700BFD3F30300C3
:1062200010000020E8F30300ECF30300040000205A
:10623000F0B5C0299FB0DDE9244557D0B1F5807F86
:1062400004D0802948D029201FB0F0BD01265CB1C0
:1062500040F23447029410240396049421240197B9
:106260000594069502AC0AE040F21447029410240B
:10627000039604942124059401240197069507941C
:1062800001251024089409950A9221220B950C945B
:106290000D92174A0AAD0E92164A0F95109242F6C9
:1062A00011021192129313951494159201AA169249
:1062B000D3B112AB1793042318931123199316AB80
:1062C0001A901B9340F61103C9081C911AA806A93D
:1062D0001D93FFF78DFEB7E7012614B94FF48267CF
:1062E000C4E74FF48667B5E70EABE3E70F20ABE7F3
:1062F000E4F3030010000010144A38B5D2F88032DD
:1063000043F00103C2F88032114B5B68C3F308030A
:1063100043B14FF0A842D36B13F0430FFBD11424C9
:10632000204638BD4FF0A843DC6B14F04304FBD18A
:10633000084D2B681BB90421284603F095F82B68FB
:10634000013343F000432B60EAE700BF00800050B8
:1063500000ED00E0C8170020014B00205B6870478B
:1063600000ED00E0012300F01F02A0F5062009491E
:10637000A0F550604009934051F820201A4341F89D
:106380002020054951F8202022EA030241F820206C
:10639000704700BFE0170020CC1700200121A0F5B6
:1063A00006230E4AA3F550635B0900F01F008140ED
:1063B00052F82300014342F823100949D1E9003083
:1063C000034488680344C868096903445B1802BF32
:1063D000C2E90033C2E9023313617047CC170020D1
:1063E000E01700202DE9F04FA9B003921D460446A6
:1063F0000822339ECDE90401414021FA02F34B40CB
:10640000980702F1080218BF9B00202A1C44F4D10F
:106410008123B4FBF3F303EBC313E41A734B04F5CA
:1064200006241B7804F55064002B3ED1FEF730F8AB
:10643000074620B16FF0910029B0BDE8F08F01460A
:10644000402208A827F082F94022394618A827F0F0
:106450007DF9DFF8B481DFF8B491C3460BF10F0A80
:10646000CDF800A0102208A95B46D9F8000026F05C
:106470003BFA0022014608F1100808AF914246D1CC
:10648000CDF800A05B461022D9F8000018A926F02C
:1064900034FA4FF0000A834618AFD34541D1544B2C
:1064A0009845DAD10122514B1A704FF0810A4FF012
:1064B0000008DFF85CB1A4F50627A7F550635B0977
:1064C0005BF8232004F01F01CA40D2073DD4494A9B
:1064D00052F82330CB40DB072AD5B8F1000F08BFB4
:1064E000A0468123A7F6FF47B7FBF3F303EBC313E3
:1064F000FF1A07F50624BAF1010A04F55064DAD14F
:10650000039BBBB1B8F1000F14D0444619E057F813
:10651000040BCDE90612FFF725FF079A0699013211
:10652000ACE757F8040BFFF739FF0AF1010AB4E7AB
:10653000039B13B96FF08B007EE7B8F1000F18BF13
:106540004446349B00201C6076E7329B13B1002345
:10655000329A13600EB1002333601023DFF8AC9041
:1065600000932A4600232146D9F8000013F052FE7A
:1065700060BB32992A68204BC9B99A4206D021469D
:10658000D9F8000013F0DEFE0028D3D1D5E90223AC
:10659000DDE90410834208BF8A42A2D1039B002B8D
:1065A000CFD06B68012BCCD16FF0840044E7102072
:1065B00032999A420860E2D1002EE7D03346214654
:1065C000D9F8000018AA13F079FE48B10B4B984295
:1065D000D5D00B4B9842D2D00A4B9842D6D029E75F
:1065E000329A336812689B1A3360CFE7832E0020FB
:1065F00000710800CC170020105D175EFFDF00F06F
:1066000011E000F0FEDF00F0006D080070310020A6
:10661000E01700202DE9F04F87B082468946984662
:106620001646DDF840B02AB1002B4FD040F26C7313
:106630009A424ED8BBF1010F4ED8002406F1100744
:106640003946012005941EF010F80546002846D072
:1066500021463A4627F07AF805ABCDE9014300948C
:106660002B46012250464946FFF7BCFE044680B146
:1066700010F18C0F08BF6FF08D043A4600212846B8
:1066800027F064F828461DF0D2FF204607B0BDE889
:10669000F08F144BC5E902A92B60C5F804B02EB1E8
:1066A0003246414605F1100027F06EF8059E0E486F
:1066B0003B462A463146006813F014FD18B93046AF
:1066C000FFF750FED9E76FF09104D6E76FF086042C
:1066D000DBE76FF09104D8E76FF08504D5E76FF042
:1066E0008C04D2E7105D175E703100202DE9F04375
:1066F0008DB08146DDE914780E4615461C469BB1E7
:10670000B8F1000F05D16FF0860630460DB0BDE838
:10671000F083002FF7D0B7F1005FF4D3C3F100533B
:1067200003F5C0339F42EED81022002108A827F0BD
:106730000DF8002207AB029305AB019306AB31467F
:106740000093484608ABCDE90522FFF74BFE06460D
:106750000028DAD1059BA4B1AB4215D853EA050451
:10676000D1D1069B0B48C8F8004000943A460799DF
:1067700000682B4413F04EFD002818BF6FF09106FF
:10678000C3E7AB42EDD2BEE75B1B9C4228BF1C4671
:10679000E7E700BF7031002030B58DB00C460546EC
:1067A0001022002108A826F0D1FF002207AB029397
:1067B00005AB019306AB21460093284608ABCDE913
:1067C0000522FFF70FFE0446D8B9099B012B1BD009
:1067D000079D104B2946186813F0B4FDB8B9012283
:1067E000A5F506230C49A3F550635B0905F01F00CE
:1067F000824051F823004240284641F82320FFF709
:10680000CDFD20460DB030BD6FF08404F9E76FF088
:106810009104F6E770310020E01700202DE9F04FD9
:1068200093B00446DDE91E75DDE920689346DDE995
:106830001C028A46DDF8889029B96FF0860420464C
:1068400013B0BDE8F08FBBF1000FF6D00FB9002DEB
:10685000F3D108B9002AF0D116B9B8F1000FECD184
:10686000B9F1000FE9D02C4A934251D12388B3F5F6
:10687000105F4DD12022002102A826F067FF2022C0
:1068800000210AA826F062FF02A81CF0EDFD10B15D
:106890006FF09204D3E720465A4651460AAB1DF0EA
:1068A0000CF904460028CAD10A981DF0FAF80446EB
:1068B0000028C4D115B9C9F80050C0E7B74224D2A6
:1068C0007B199E4221D24545B7D839462A463046E3
:1068D00026F022FF374615F00F0AAED1CDE900763B
:1068E0002B4652460AA902A8FFF700F807460028DF
:1068F000E1D042465146304626F028FF012FC9F824
:1069000000A0C5D16FF08B0499E74545E3D994E722
:106910006FF0850493E700BF004440042DE9F04F79
:10692000B3B00C4605460021164602A82022984620
:106930003C9FDDF8009126F009FF202200210AA8E3
:1069400026F004FF2022002112A826F0FFFE2022BC
:1069500000211AA826F0FAFE00213C2223A8229149
:1069600026F0F4FE34B12EB127B13E9B13B1B9F13C
:10697000000F05D16FF08604204633B0BDE8F08FDC
:10698000B4F800B0B4F802A00BF4E043B3F5804FC4
:10699000F0D0384B384A2B4043F01063934202D07A
:1069A0006FF08504E8E70AF10703B8EBD30F4FEA6D
:1069B000D305DFD33F9B9D4258D81AA81CF054FD45
:1069C00010B16FF09204D7E7002301A91AA8019330
:1069D000FFF7E8FA0028F4D1019B284A23F07F430F
:1069E00093420193DCD947F212139B45D8D1BAF5F3
:1069F000807FD5D1224B01370A933D9B0D90023306
:106A000023F003030F93402317936B000E97159009
:106A1000139320464246314622AF02AB16971DF033
:106A20004CF804460028A7D10C9B129043F4005365
:106A30001AA80C931CF018FD0028C2D112AB0AAAA8
:106A400002A91AA8FFF7BAF9064610B1482891D151
:106A5000A6E72A4639463E9826F096FE3346BB55B1
:106A60000136402EFBD1C9F8005085E76FF089044C
:106A700082E700BF0000FFF60000020901020100EA
:106A800020000080F8B5134642880C460732072ADA
:106A90004FEAD20101D0A1424DD146680588C768AE
:106AA00020221846002126F051FE360A0346002E09
:106AB00044D1002C3FD041F20102954205D0B5F5FA
:106AC000885F02D0B5F5905F02D15C60002011E0D4
:106AD000B5F5105F07D1182C03D0202C01D0102C55
:106AE00029D11C60F1E705F44F42B2F5824F02D084
:106AF0006FF08500F8BDEAB2122AF9D1202CF7D147
:106B0000104A25F0FF05B5F5E24F02600CD0B5F54F
:106B1000824F10D14FF4005217F4705F09D017F470
:106B2000864F04D09A60E3E74FF48042F4E742F4E2
:106B300080629A60CAE76FF08600DBE76FF08B0037
:106B4000D8E700BF200000802DE9F04F9A46038867
:106B5000144603F44F42B3B0B2F5824F0F46DDF84E
:106B6000F89002D06FF0850056E011B96FF0860002
:106B700052E0002CFAD0B9F1000FF7D0DAB2122AA5
:106B8000F0D123F0FF03B3F5E24F34D14388C9F8C5
:106B900000305BBBE300C9F80030B3F5807FE1D182
:106BA0000023184655493D19214411F8016D15F887
:106BB000012D1043921B0CBF4FF0FF360026AF4251
:106BC00003EA060343EA0203EFD10028CED0002BEC
:106BD000CCDA3C9B9C4200F28E80224639465046DD
:106BE00026F0D2FD3D9B00201C6015E0DA1DB4EBC1
:106BF000D20FD2D0BAE7B3F5824F79D10B78042BFC
:106C0000B4D12022002101A826F0A0FD01A81CF08B
:106C10002BFC20B16FF0920033B0BDE8F08F0090F4
:106C2000694601A8FFF7BEF90028F3D1009B344A5A
:106C300023F07F43934295D94FF000083E2241460E
:106C400022A8CDF8848026F081FD01234FF0420B6D
:106C50002022414609A88DF88430651E26F076FD75
:106C60007B1C2022414611A80D9321AE0E9526F0E3
:106C70006DFD2022414619A81596CDF858B026F092
:106C800065FDEA005208B2F5807FCDE91D6BC9F8B9
:106C900000200BD003D8E02A3FF464AF66E7B2F5DA
:106CA000C07F3FF45FAFB2F5047FF5E7154B09AA4B
:106CB000099311934FF400530B934FF480431393B4
:106CC000402311A91A9301A819ABFFF777F8D9F857
:106CD00000300733DB085A0033B1531E013B86F8FE
:106CE000008006F10106F9D200283FF472AF3DE7BB
:106CF0006FF0960090E76FF089008DE7F0F30300E6
:106D000001020100200000802DE9F04F8FB0DDF876
:106D1000608081460C4692469B461A9FB8F1000F50
:106D200005D16FF0860420460FB0BDE8F08F002F2C
:106D3000F7D00028F5D02022002106A826F006FD75
:106D400006A81CF091FB10B16FF09204EBE714F46D
:106D50007C1FC4F305452AD0102DE2D8199B9D4213
:106D600033D81D4B24F47E149C4231D1002302AE53
:106D7000CDE90233CDE9043352465B4649460096DD
:106D800006A8FEF70BFE044698B92A46314640464F
:106D900026F0FAFC234633550134102CFBD1002495
:106DA0003D6006A81CF06AFB0028BCD0CCE710258B
:106DB000D4E7212806D0012814BF6FF092046FF0A9
:106DC0008B04EEE76FF08604EBE76FF08904AAE727
:106DD0006FF08504A7E700BF0002C00370B50E4640
:106DE0001446054610B96FF0860070BD0029FAD030
:106DF0003822002126F0AAFC094B24F47E129A4284
:106E00000AD13388B3F5105F06D1C4F30543102BC4
:106E1000E9D800202C60E8E76FF08500E5E700BFC7
:106E20000002C003F0B50F4616461D4604468BB05F
:106E300088B302B97BBB2022002102A826F086FC81
:106E400002A81CF011FB20B16FF0920420460BB099
:106E5000F0BD2368114A23F47E13934215D135B94E
:106E6000002402A81CF00AFB0028EFD0ECE7334610
:106E70003A46009502A9201DFEF772FE012807D0B0
:106E80000028EDD06FF09204EBE76FF08804E8E79C
:106E90006FF08B04E5E76FF08604D7E70002C003CC
:106EA0002DE9F0418CB0884616461D460446129FD7
:106EB000002840D0002A3ED0002B3CD0002F3AD0F2
:106EC000102B036828BF102513F47C1FC3F3054261
:106ED00002D0954228BF15461A4A23F47E139342E6
:106EE0002CD12022002104A826F030FC002304A885
:106EF000CDE90033CDE902331CF0B6FA40B96B4658
:106F0000424604A9201DFEF7A7FD30B100233B60D7
:106F10006FF092000CB0BDE8F08104A81CF0AEFA4E
:106F200004460028F2D12A466946304626F02CFC59
:106F300020463D60EEE76FF08600EBE76FF08800DB
:106F4000E8E700BF0002C0030023C36001F138037B
:106F5000036120230A6843618B6D0B4922F47E1282
:106F60008A42436003D001F580718A4208D1102B18
:106F700001D0182B02D1036000207047202BFAD0DB
:106F80006FF08800704700BF0001C00330B58BB0C0
:106F90006D46604C0FCC0FC554F8043B68462B601F
:106FA0004FF07E6393F89C306D46FF2B08BF25237E
:106FB0008DF80130FDF794FF3220FDF7C9FF0FCCAB
:106FC0000FC50FCC0FC594E8030085E80300524BB2
:106FD000D3F84C21110340F18380A3F5FE431C88B4
:106FE0004FF6FF739C4208BF81248DF81940FDF7CE
:106FF00045FF044484F3080448488DF81840FCF722
:10700000CBFE6846FDF76EFE3220FDF7A7FF444C2D
:107010004448FDF717FE4448FDF7A6FF1CF03BF976
:10702000236F002023F0070343F002032367236F3D
:1070300023F4505343F4806323671CF033F93B4B34
:10704000D3F8FC20D2014FD4D4F8803023F00303CE
:1070500043F00203C4F88030314BD3F8202122F0F2
:10706000070242F00102C3F82021D3F8802122F068
:10707000030242F00102C3F88021D3F8402122F03C
:10708000030242F00202C3F84021D3F8602122F04B
:10709000030242F00202C3F86021D3F8402222F03A
:1070A000030242F00202C3F84022D3F8002222F089
:1070B000070242F00202C3F80022D3F8082222F0AD
:1070C000070242F00202C3F80822FDF79BFD4FF0D1
:1070D000E0220020136963F0040313610BB030BD9C
:1070E000D3F85041E4B280E7D3F8FC2022F080725C
:1070F000C3F8FC20D4F8802022F0030242F0020200
:10710000C4F88020D3F8FC2042F08072C3F8FC2041
:10711000A2E700BF10F403000080E00F00F0490276
:107120000080005000B4C404C0EA210100ED00E07A
:107130006FF00403502110B50A480B4C13F0800F78
:1071400003F1010206D123443D2A83F800131346BC
:10715000F4D110BD03F00F03043B0344197613462A
:10716000ECE700BF00ED00E000E100E0BFF34F8F6F
:107170000549064BCA6802F4E0621343CB60BFF3D3
:107180004F8F00BFFDE700BF00ED00E00400FA05EF
:1071900000280CDB01220649430900F01F00824051
:1071A000203341F82320BFF34F8FBFF36F8F704719
:1071B00000E100E0002807DB01234109034A00F059
:1071C0001F00834042F82130704700BF00E100E01B
:1071D000002808DB01224309034900F01F00824018
:1071E000603341F82320704700E100E00028ACBF85
:1071F00000F16040064B4FEA0111C9B2ABBF00F588
:10720000614000F00F0080F800131954704700BF70
:1072100014ED00E010B504461BF0B4FF024B1C60F7
:107220001BF0B4FF002010BDF417002010B51BF0B8
:10723000A9FF034B1C681BF0A9FF204610BD00BF2F
:10724000F4170020034B02221868002380681946B7
:107250001AF000BA7832002030B51446054687B0DF
:1072600010461DF000F86369024683423CBFD4E932
:1072700003315B181B1A7BB10F4904940391002161
:10728000CDE90131012300932846D4E900131BF016
:10729000A7FF002007B030BD0122627694F82D20B0
:1072A000002AF6D084F835301321E3692046984748
:1072B0002046636A9847ECE7597201002DE9F047D0
:1072C00088B004460F46164698461BF062FF81467A
:1072D000002E7AD0237E03F0FF02002B00F0A28064
:1072E00020461CF0C0FF6569A84205D1637ED4E941
:1072F000033213445D1B01E0F9D9451BB54228BF99
:1073000035461BF046FF94F82D308246002B6DD198
:107310002A463846616926F037FA63692E462B44BF
:10732000636121E0037803F0FD0111295BD1216B3A
:10733000814205D1A3F111014B424B4184F8343015
:10734000013E6369216B01328B4203F1010308BFE7
:107350002363636195426069E4D1D4E90323216B1F
:107360001344994200D122630025D4E903236169C3
:107370001344994208BF6261207A6576FCF7A4FF46
:1073800020461CF070FF6369834232D1257694F861
:107390002D30E568656103B125632046636A98472F
:1073A000214B049403930023029323692A460193FB
:1073B0000123009363682168207A1BF011FF207A73
:1073C000FCF7A2FF50461BF0EAFE4846C8F80060F2
:1073D0001BF0E5FED8F80030002B0CBF1B2000206E
:1073E00008B0BDE8F08707F8013BAAE72E46002267
:1073F000B0E70123207A23760DF11E01FCF7ECFFA4
:107400009DF81E30002BDAD00DF11F01207AFCF719
:10741000BBFF9DF81F100029D1D12246207AFFF72B
:107420001BFFCCE71646D0E7597201002DE9F04169
:107430000C461546064686B04022002120461F46CF
:1074400026F084F995E8030000232A692376EB6887
:1074500084E80300C4E904232A7DE36084F82C2037
:10746000AA7D2363012384F8343084F835300C9BE3
:1074700084F82D2023620D9BE76163620E9BA3625B
:107480002B7A84F836306B7A84F837302D4B3460A1
:1074900073602D4BB3602D4B33612D4B73612D4BBE
:1074A000F360FCF7DDFE38B12B4B984204D010247A
:1074B000204606B0BDE8F081002104F10800FCF789
:1074C00057FE07460028F2D14FF00108234B3362E4
:1074D000234B84F83C80B361224BF3619DF840302C
:1074E00084F8390084F83B309DF83C30204684F81D
:1074F0003A30697D84F838801CF0F2FE95F9090075
:10750000FFF766FE95F90900FFF754FE164B049449
:10751000CDE902732369CDE900836368E2682168DD
:10752000207A1BF05DFE04460028C0D195F90800C2
:10753000FFF74EFE95F90800FFF73CFE3046FFF7D7
:1075400069FEB5E731430300BD72010055420300F7
:107550005B42030087420300038000F02F420300D8
:10756000E142030061420300597201002DE9F0413C
:107570004FF001081C46574B86B00293564B0C9DAA
:107580000193564B174600930A46CDE903882946D6
:10759000534BFFF74BFF0646002840F092802368CC
:1075A00004222B64237985F84430A17985F84610AC
:1075B000607985F84500237A85F84830E37985F8C5
:1075C0004730A37A85F84A30637A85F84930237BBF
:1075D00085F84C30E37A85F84B304346FDF7B6FD2D
:1075E00043460222217AE079FDF7B0FD3E7039462C
:1075F0002068FDF7D7FF1421A27B3A4B03EB421022
:10760000C0F8AC1594F806C061792E3203EB421332
:1076100041EA0C415960227AE37943EA0243C0F817
:10762000BC3585F84D607B7E032B50D8DFE803F036
:107630003A4D021D022385F84D3000230422217BA0
:10764000E07AFDF783FD41F2AC520221A37B5B019E
:1076500003F1A04303F570339950217BE27A42EAAB
:10766000014241F2B8515A501CE0012785F84D30D3
:1076700002220023A17A607AFDF768FDA17A627A7E
:10768000A37B42EA014241F2B4515B0103F1A04302
:1076900003F570335A500422236803F58053DA65EA
:1076A000002FCAD163792A6C85F84530A37905216A
:1076B00085F84630D36C206843F00403D3641BF094
:1076C00029FE304606B0BDE8F0810027CEE723262C
:1076D000F7E700BF5F44030053440300E3440300A3
:1076E000D744030000C0035073B50024684600F07F
:1076F000F1FA0C4B00981C600B4B0C4D1C600C4EAF
:107700000C4B306018602C601CF0CDFF2046019BB4
:107710003268013BDB0853802B6801332B6002B0D9
:1077200070BD00BFFC170020F817002000180020D3
:1077300008180020041800202DE9F04F0027924679
:1077400087B04A1C0E4614BF0C460824994605977C
:10775000002B00F0B0801F60002800F0AE800730E2
:1077600020F007051BF015FD05AB31460290009394
:1077700052463B46284600F0B7FA059E804606B1C1
:1077800030B902981BF00BFD192007B0BDE8F08F4F
:10779000DFF83CB17788DBF80010FB00C0EBC707CF
:1077A0000139272FCBF800106CD9BAF1000F48D15E
:1077B000854205F1080740D0214630461CF0F1FE15
:1077C00004460590059B1F4438461CF06CFF059944
:1077D00005F10F034A88C3F3CF03D21A7A80CA880F
:1077E000BB8062B3D31A9BB201EBC202FB809380D1
:1077F0008B88ED08A380BB8800223146384665801F
:10780000E38000F0E9FA237843F001032370DBF80A
:1078100000300133CBF800302B4A0298136808344B
:1078200043441360294A11688B4288BF13601BF0E0
:10783000B6FC0020C9F80040A7E73446C2E7FA804A
:10784000D6E7F419204603931CF02DFF08F1070238
:10785000D20805996280FA1DD208A280CA887AB13E
:10786000D200039BD01DC31A4344C3F3CF030A4481
:10787000E3809380A388013FFF084F80CB80C2E75D
:10788000E280F7E7BAF1010F19D106F10803B3FB63
:10789000F4F204FB1233A3B1214630461CF081FE02
:1078A00004462378012243F0010331462046237029
:1078B00000F092FAB0E7222067E7212065E78542D1
:1078C000EAD13446EDE700BFFC170020F81700208E
:1078D000001800202DE9F3470446684600F0FAF945
:1078E000002C00F0C2801BF054FC14F8085CEB077D
:1078F00004D534F806ECBEF1000F05D11BF04FFCA7
:10790000012002B0BDE8F087DFF870C134F8041C34
:10791000DCF800800EF1010208F10103A4F1080671
:1079200092B2CCF80030002938D0A6EBC10393F80E
:1079300000A0B3F806901AF0010F5F8805F0020569
:1079400020D105BBA9EB0701012927D80EF10202BE
:107950001744BAB2CCF8008034F8025C05BB14F8C6
:10796000085C511E6FF3000504F8085C002589B21D
:1079700024F8065C5980197865F30001197000211C
:10798000D98031E055B111448AB214F8081C6FF364
:10799000410104F8081C00219980DDE73346DBE74C
:1079A00006EBC508DDE900710F44B845D7D216F8DB
:1079B0003560414616F001062ED014F8086C551EAD
:1079C0006FF3000604F8086C002624F8066C1C7897
:1079D000ADB266F300045D801C70C3F107040C4473
:1079E000C4F3CF04DC808C80214C216819B199420A
:1079F00001D8498801B923601E4C216819B1994208
:107A000001D3498801B923601B490B689B1A0B609D
:107A10001BF0C5FB002074E7A5EB0E05012DCCD8AB
:107A2000B8F80250A8F8026001352A44B8F80650A8
:107A300092B2C5B108EBC501DCF80050013DCCF8AD
:107A4000005014F8085C6FF3000504F8085C00258A
:107A500024F8065C541E5C801C7865F300041C70DE
:107A60000029BAD18BE72946E6E7222049E700BF83
:107A70000818002004180020FC170020001800201F
:107A80002DE9F84F04460D469146002A00F0178173
:107A90000023136040B9002900F0138101462846F5
:107AA000BDE8F84F1CF0BDBD19B9BDE8F84FFFF7B0
:107AB00011BF1BF06EFB34F8063C07354FEAC308D4
:107AC00025F00705A8450746A4F1080080F084804A
:107AD00034F8022C002A65D000EBC20A10F83220DC
